{
  "_format": "hh-sol-artifact-1",
  "contractName": "CollaborationSpace",
  "sourceName": "contracts/CollaborationSpace.sol",
  "abi": [
    {
      "inputs": [
        {
          "internalType": "address",
          "name": "_userRegistryAddress",
          "type": "address"
        },
        {
          "internalType": "address",
          "name": "_documentManagerAddress",
          "type": "address"
        }
      ],
      "stateMutability": "nonpayable",
      "type": "constructor"
    },
    {
      "anonymous": false,
      "inputs": [
        {
          "indexed": true,
          "internalType": "uint256",
          "name": "workspaceId",
          "type": "uint256"
        },
        {
          "indexed": true,
          "internalType": "uint256",
          "name": "documentId",
          "type": "uint256"
        }
      ],
      "name": "DocumentLinked",
      "type": "event"
    },
    {
      "anonymous": false,
      "inputs": [
        {
          "indexed": true,
          "internalType": "uint256",
          "name": "workspaceId",
          "type": "uint256"
        },
        {
          "indexed": true,
          "internalType": "uint256",
          "name": "documentId",
          "type": "uint256"
        }
      ],
      "name": "DocumentUnlinked",
      "type": "event"
    },
    {
      "anonymous": false,
      "inputs": [
        {
          "indexed": true,
          "internalType": "uint256",
          "name": "workspaceId",
          "type": "uint256"
        },
        {
          "indexed": true,
          "internalType": "address",
          "name": "member",
          "type": "address"
        },
        {
          "indexed": false,
          "internalType": "enum CollaborationSpace.MemberRole",
          "name": "role",
          "type": "uint8"
        }
      ],
      "name": "MemberAdded",
      "type": "event"
    },
    {
      "anonymous": false,
      "inputs": [
        {
          "indexed": true,
          "internalType": "uint256",
          "name": "workspaceId",
          "type": "uint256"
        },
        {
          "indexed": true,
          "internalType": "address",
          "name": "member",
          "type": "address"
        }
      ],
      "name": "MemberRemoved",
      "type": "event"
    },
    {
      "anonymous": false,
      "inputs": [
        {
          "indexed": true,
          "internalType": "uint256",
          "name": "workspaceId",
          "type": "uint256"
        },
        {
          "indexed": true,
          "internalType": "address",
          "name": "member",
          "type": "address"
        },
        {
          "indexed": false,
          "internalType": "enum CollaborationSpace.MemberRole",
          "name": "newRole",
          "type": "uint8"
        }
      ],
      "name": "MemberRoleChanged",
      "type": "event"
    },
    {
      "anonymous": false,
      "inputs": [
        {
          "indexed": true,
          "internalType": "uint256",
          "name": "threadId",
          "type": "uint256"
        },
        {
          "indexed": true,
          "internalType": "uint256",
          "name": "postId",
          "type": "uint256"
        },
        {
          "indexed": false,
          "internalType": "address",
          "name": "author",
          "type": "address"
        }
      ],
      "name": "PostAdded",
      "type": "event"
    },
    {
      "anonymous": false,
      "inputs": [
        {
          "indexed": true,
          "internalType": "uint256",
          "name": "threadId",
          "type": "uint256"
        },
        {
          "indexed": true,
          "internalType": "uint256",
          "name": "postId",
          "type": "uint256"
        }
      ],
      "name": "PostUpdated",
      "type": "event"
    },
    {
      "anonymous": false,
      "inputs": [
        {
          "indexed": true,
          "internalType": "uint256",
          "name": "workspaceId",
          "type": "uint256"
        },
        {
          "indexed": true,
          "internalType": "uint256",
          "name": "threadId",
          "type": "uint256"
        },
        {
          "indexed": false,
          "internalType": "string",
          "name": "title",
          "type": "string"
        }
      ],
      "name": "ThreadCreated",
      "type": "event"
    },
    {
      "anonymous": false,
      "inputs": [
        {
          "indexed": true,
          "internalType": "uint256",
          "name": "threadId",
          "type": "uint256"
        }
      ],
      "name": "ThreadUpdated",
      "type": "event"
    },
    {
      "anonymous": false,
      "inputs": [
        {
          "indexed": true,
          "internalType": "uint256",
          "name": "workspaceId",
          "type": "uint256"
        },
        {
          "indexed": true,
          "internalType": "address",
          "name": "owner",
          "type": "address"
        },
        {
          "indexed": false,
          "internalType": "string",
          "name": "name",
          "type": "string"
        }
      ],
      "name": "WorkspaceCreated",
      "type": "event"
    },
    {
      "anonymous": false,
      "inputs": [
        {
          "indexed": true,
          "internalType": "uint256",
          "name": "workspaceId",
          "type": "uint256"
        }
      ],
      "name": "WorkspaceUpdated",
      "type": "event"
    },
    {
      "inputs": [
        {
          "internalType": "uint256",
          "name": "workspaceId",
          "type": "uint256"
        },
        {
          "internalType": "address",
          "name": "member",
          "type": "address"
        },
        {
          "internalType": "enum CollaborationSpace.MemberRole",
          "name": "role",
          "type": "uint8"
        }
      ],
      "name": "addWorkspaceMember",
      "outputs": [],
      "stateMutability": "nonpayable",
      "type": "function"
    },
    {
      "inputs": [
        {
          "internalType": "uint256",
          "name": "workspaceId",
          "type": "uint256"
        },
        {
          "internalType": "string",
          "name": "title",
          "type": "string"
        },
        {
          "internalType": "string",
          "name": "initialContent",
          "type": "string"
        }
      ],
      "name": "createDiscussionThread",
      "outputs": [
        {
          "internalType": "uint256",
          "name": "",
          "type": "uint256"
        },
        {
          "internalType": "uint256",
          "name": "",
          "type": "uint256"
        }
      ],
      "stateMutability": "nonpayable",
      "type": "function"
    },
    {
      "inputs": [
        {
          "internalType": "string",
          "name": "name",
          "type": "string"
        },
        {
          "internalType": "string",
          "name": "description",
          "type": "string"
        },
        {
          "internalType": "bool",
          "name": "isPrivate",
          "type": "bool"
        }
      ],
      "name": "createWorkspace",
      "outputs": [
        {
          "internalType": "uint256",
          "name": "",
          "type": "uint256"
        }
      ],
      "stateMutability": "nonpayable",
      "type": "function"
    },
    {
      "inputs": [
        {
          "internalType": "uint256",
          "name": "threadId",
          "type": "uint256"
        }
      ],
      "name": "getThreadPosts",
      "outputs": [
        {
          "components": [
            {
              "internalType": "uint256",
              "name": "id",
              "type": "uint256"
            },
            {
              "internalType": "uint256",
              "name": "threadId",
              "type": "uint256"
            },
            {
              "internalType": "address",
              "name": "author",
              "type": "address"
            },
            {
              "internalType": "string",
              "name": "content",
              "type": "string"
            },
            {
              "internalType": "uint256",
              "name": "createdAt",
              "type": "uint256"
            },
            {
              "internalType": "uint256",
              "name": "editedAt",
              "type": "uint256"
            },
            {
              "internalType": "bool",
              "name": "isEdited",
              "type": "bool"
            },
            {
              "internalType": "bool",
              "name": "exists",
              "type": "bool"
            }
          ],
          "internalType": "struct CollaborationSpace.Post[]",
          "name": "",
          "type": "tuple[]"
        }
      ],
      "stateMutability": "view",
      "type": "function"
    },
    {
      "inputs": [
        {
          "internalType": "address",
          "name": "user",
          "type": "address"
        }
      ],
      "name": "getUserWorkspaces",
      "outputs": [
        {
          "internalType": "uint256[]",
          "name": "",
          "type": "uint256[]"
        }
      ],
      "stateMutability": "view",
      "type": "function"
    },
    {
      "inputs": [
        {
          "internalType": "uint256",
          "name": "workspaceId",
          "type": "uint256"
        }
      ],
      "name": "getWorkspace",
      "outputs": [
        {
          "components": [
            {
              "internalType": "uint256",
              "name": "id",
              "type": "uint256"
            },
            {
              "internalType": "string",
              "name": "name",
              "type": "string"
            },
            {
              "internalType": "string",
              "name": "description",
              "type": "string"
            },
            {
              "internalType": "address",
              "name": "owner",
              "type": "address"
            },
            {
              "internalType": "bool",
              "name": "isPrivate",
              "type": "bool"
            },
            {
              "internalType": "uint256",
              "name": "createdAt",
              "type": "uint256"
            },
            {
              "internalType": "uint256",
              "name": "lastUpdated",
              "type": "uint256"
            },
            {
              "internalType": "bool",
              "name": "exists",
              "type": "bool"
            }
          ],
          "internalType": "struct CollaborationSpace.Workspace",
          "name": "",
          "type": "tuple"
        }
      ],
      "stateMutability": "view",
      "type": "function"
    },
    {
      "inputs": [
        {
          "internalType": "uint256",
          "name": "workspaceId",
          "type": "uint256"
        }
      ],
      "name": "getWorkspaceDocuments",
      "outputs": [
        {
          "components": [
            {
              "internalType": "uint256",
              "name": "documentId",
              "type": "uint256"
            },
            {
              "internalType": "uint256",
              "name": "workspaceId",
              "type": "uint256"
            },
            {
              "internalType": "string",
              "name": "notes",
              "type": "string"
            },
            {
              "internalType": "uint256",
              "name": "addedAt",
              "type": "uint256"
            },
            {
              "internalType": "address",
              "name": "addedBy",
              "type": "address"
            }
          ],
          "internalType": "struct CollaborationSpace.WorkspaceDocument[]",
          "name": "",
          "type": "tuple[]"
        }
      ],
      "stateMutability": "view",
      "type": "function"
    },
    {
      "inputs": [
        {
          "internalType": "uint256",
          "name": "workspaceId",
          "type": "uint256"
        }
      ],
      "name": "getWorkspaceMembers",
      "outputs": [
        {
          "components": [
            {
              "internalType": "address",
              "name": "userAddress",
              "type": "address"
            },
            {
              "internalType": "enum CollaborationSpace.MemberRole",
              "name": "role",
              "type": "uint8"
            },
            {
              "internalType": "uint256",
              "name": "joinedAt",
              "type": "uint256"
            }
          ],
          "internalType": "struct CollaborationSpace.WorkspaceMember[]",
          "name": "",
          "type": "tuple[]"
        }
      ],
      "stateMutability": "view",
      "type": "function"
    },
    {
      "inputs": [
        {
          "internalType": "uint256",
          "name": "workspaceId",
          "type": "uint256"
        }
      ],
      "name": "getWorkspaceThreads",
      "outputs": [
        {
          "components": [
            {
              "internalType": "uint256",
              "name": "id",
              "type": "uint256"
            },
            {
              "internalType": "uint256",
              "name": "workspaceId",
              "type": "uint256"
            },
            {
              "internalType": "string",
              "name": "title",
              "type": "string"
            },
            {
              "internalType": "address",
              "name": "creator",
              "type": "address"
            },
            {
              "internalType": "uint256",
              "name": "createdAt",
              "type": "uint256"
            },
            {
              "internalType": "uint256",
              "name": "lastUpdated",
              "type": "uint256"
            },
            {
              "internalType": "bool",
              "name": "isPinned",
              "type": "bool"
            },
            {
              "internalType": "bool",
              "name": "exists",
              "type": "bool"
            }
          ],
          "internalType": "struct CollaborationSpace.DiscussionThread[]",
          "name": "",
          "type": "tuple[]"
        }
      ],
      "stateMutability": "view",
      "type": "function"
    },
    {
      "inputs": [
        {
          "internalType": "uint256",
          "name": "workspaceId",
          "type": "uint256"
        },
        {
          "internalType": "uint256",
          "name": "documentId",
          "type": "uint256"
        },
        {
          "internalType": "string",
          "name": "notes",
          "type": "string"
        }
      ],
      "name": "linkDocument",
      "outputs": [],
      "stateMutability": "nonpayable",
      "type": "function"
    },
    {
      "inputs": [
        {
          "internalType": "uint256",
          "name": "workspaceId",
          "type": "uint256"
        },
        {
          "internalType": "address",
          "name": "member",
          "type": "address"
        }
      ],
      "name": "removeWorkspaceMember",
      "outputs": [],
      "stateMutability": "nonpayable",
      "type": "function"
    },
    {
      "inputs": [
        {
          "internalType": "uint256",
          "name": "workspaceId",
          "type": "uint256"
        },
        {
          "internalType": "uint256",
          "name": "documentId",
          "type": "uint256"
        }
      ],
      "name": "unlinkDocument",
      "outputs": [],
      "stateMutability": "nonpayable",
      "type": "function"
    },
    {
      "inputs": [
        {
          "internalType": "uint256",
          "name": "workspaceId",
          "type": "uint256"
        },
        {
          "internalType": "string",
          "name": "name",
          "type": "string"
        },
        {
          "internalType": "string",
          "name": "description",
          "type": "string"
        },
        {
          "internalType": "bool",
          "name": "isPrivate",
          "type": "bool"
        }
      ],
      "name": "updateWorkspace",
      "outputs": [],
      "stateMutability": "nonpayable",
      "type": "function"
    }
  ],
  "bytecode": "0x60806040523480156200001157600080fd5b5060405162004b6e38038062004b6e833981810160405281019062000037919062000142565b816000806101000a81548173ffffffffffffffffffffffffffffffffffffffff021916908373ffffffffffffffffffffffffffffffffffffffff16021790555080600160006101000a81548173ffffffffffffffffffffffffffffffffffffffff021916908373ffffffffffffffffffffffffffffffffffffffff160217905550600060028190555060006003819055506000600481905550505062000189565b600080fd5b600073ffffffffffffffffffffffffffffffffffffffff82169050919050565b60006200010a82620000dd565b9050919050565b6200011c81620000fd565b81146200012857600080fd5b50565b6000815190506200013c8162000111565b92915050565b600080604083850312156200015c576200015b620000d8565b5b60006200016c858286016200012b565b92505060206200017f858286016200012b565b9150509250929050565b6149d580620001996000396000f3fe608060405234801561001057600080fd5b50600436106100cf5760003560e01c8063bb1e161a1161008c578063d7d19c4e11610066578063d7d19c4e14610234578063e1f56e4014610264578063e9b7773714610294578063ea345acb146102b0576100cf565b8063bb1e161a146101b8578063cc924a82146101e8578063d2c14a0b14610218576100cf565b806306f2f439146100d4578063099c13a9146100f057806394f5d4481461010c578063ab1c09191461013c578063adbebda61461016c578063b05fae7c14610188575b600080fd5b6100ee60048036038101906100e99190612fa1565b6102e1565b005b61010a6004803603810190610105919061313a565b6108b7565b005b610126600480360381019061012191906131e1565b610cac565b604051610133919061327b565b60405180910390f35b61015660048036038101906101519190613296565b610fa3565b6040516101639190613449565b60405180910390f35b6101866004803603810190610181919061346b565b611160565b005b6101a2600480360381019061019d9190613296565b6115e6565b6040516101af91906136ab565b60405180910390f35b6101d260048036038101906101cd9190613296565b61179f565b6040516101df9190613805565b60405180910390f35b61020260048036038101906101fd9190613296565b6119c7565b60405161020f91906138de565b60405180910390f35b610232600480360381019061022d9190613900565b611c73565b005b61024e60048036038101906102499190613940565b6120df565b60405161025b9190613a1c565b60405180910390f35b61027e60048036038101906102799190613296565b612176565b60405161028b9190613bb0565b60405180910390f35b6102ae60048036038101906102a99190613bd2565b6123df565b005b6102ca60048036038101906102c59190613c71565b61257e565b6040516102d8929190613cfc565b60405180910390f35b826005600082815260200190815260200160002060060160009054906101000a900460ff16610345576040517f08c379a000000000000000000000000000000000000000000000000000000000815260040161033c90613d82565b60405180910390fd5b83610352813360026129d4565b806103655750610364813360036129d4565b5b6103a4576040517f08c379a000000000000000000000000000000000000000000000000000000000815260040161039b90613e14565b60405180910390fd5b60008054906101000a900473ffffffffffffffffffffffffffffffffffffffff1673ffffffffffffffffffffffffffffffffffffffff16630e666e49856040518263ffffffff1660e01b81526004016103fd9190613e43565b602060405180830381865afa15801561041a573d6000803e3d6000fd5b505050506040513d601f19601f8201168201806040525081019061043e9190613e73565b61047d576040517f08c379a000000000000000000000000000000000000000000000000000000000815260040161047490613eec565b60405180910390fd5b6005600086815260200190815260200160002060030160009054906101000a900473ffffffffffffffffffffffffffffffffffffffff1673ffffffffffffffffffffffffffffffffffffffff168473ffffffffffffffffffffffffffffffffffffffff1603610521576040517f08c379a000000000000000000000000000000000000000000000000000000000815260040161051890613f58565b60405180910390fd5b600380811115610534576105336132fe565b5b60ff1683600381111561054a576105496132fe565b5b60ff161061058d576040517f08c379a000000000000000000000000000000000000000000000000000000000815260040161058490613fc4565b60405180910390fd5b60005b60066000878152602001908152602001600020805490508110156106f7578473ffffffffffffffffffffffffffffffffffffffff166006600088815260200190815260200160002082815481106105ea576105e9613fe4565b5b906000526020600020906002020160000160009054906101000a900473ffffffffffffffffffffffffffffffffffffffff1673ffffffffffffffffffffffffffffffffffffffff16036106ea578360066000888152602001908152602001600020828154811061065d5761065c613fe4565b5b906000526020600020906002020160000160146101000a81548160ff021916908360038111156106905761068f6132fe565b5b02179055508473ffffffffffffffffffffffffffffffffffffffff16867f9d2da238956ce558916f84e9e052297d8cdbb198489ae7920fe3eef84248c1e7866040516106dc9190614022565b60405180910390a3506108b0565b8080600101915050610590565b506006600086815260200190815260200160002060405180606001604052808673ffffffffffffffffffffffffffffffffffffffff168152602001856003811115610745576107446132fe565b5b815260200142815250908060018154018082558091505060019003906000526020600020906002020160009091909190915060008201518160000160006101000a81548173ffffffffffffffffffffffffffffffffffffffff021916908373ffffffffffffffffffffffffffffffffffffffff16021790555060208201518160000160146101000a81548160ff021916908360038111156107e9576107e86132fe565b5b0217905550604082015181600101555050600b60008573ffffffffffffffffffffffffffffffffffffffff1673ffffffffffffffffffffffffffffffffffffffff1681526020019081526020016000208590806001815401808255809150506001900390600052602060002001600090919091909150558373ffffffffffffffffffffffffffffffffffffffff16857f6d823a87b8adb1e6e1663878da44a7c825dabfa93bd428a4c01ba3f8fb610635856040516108a79190614022565b60405180910390a35b5050505050565b826005600082815260200190815260200160002060060160009054906101000a900460ff1661091b576040517f08c379a000000000000000000000000000000000000000000000000000000000815260040161091290613d82565b60405180910390fd5b836109268133612b8a565b610965576040517f08c379a000000000000000000000000000000000000000000000000000000000815260040161095c906140af565b60405180910390fd5b610971853360016129d4565b6109b0576040517f08c379a00000000000000000000000000000000000000000000000000000000081526004016109a79061411b565b60405180910390fd5b600160009054906101000a900473ffffffffffffffffffffffffffffffffffffffff1673ffffffffffffffffffffffffffffffffffffffff1663ccb46896853360006040518463ffffffff1660e01b8152600401610a109392919061418d565b602060405180830381865afa158015610a2d573d6000803e3d6000fd5b505050506040513d601f19601f82011682018060405250810190610a519190613e73565b610a90576040517f08c379a0000000000000000000000000000000000000000000000000000000008152600401610a8790614210565b60405180910390fd5b60005b6009600087815260200190815260200160002080549050811015610b455784600960008881526020019081526020016000208281548110610ad757610ad6613fe4565b5b90600052602060002090600502016000015403610b385783600960008881526020019081526020016000208281548110610b1457610b13613fe4565b5b90600052602060002090600502016002019081610b319190614432565b5050610ca5565b8080600101915050610a93565b50600960008681526020019081526020016000206040518060a001604052808681526020018781526020018581526020014281526020013373ffffffffffffffffffffffffffffffffffffffff16815250908060018154018082558091505060019003906000526020600020906005020160009091909190915060008201518160000155602082015181600101556040820151816002019081610be89190614432565b506060820151816003015560808201518160040160006101000a81548173ffffffffffffffffffffffffffffffffffffffff021916908373ffffffffffffffffffffffffffffffffffffffff1602179055505050600a600085815260200190815260200160002085908060018154018082558091505060019003906000526020600020016000909190919091505583857fbbe733a539d7e31c959174df2d4c9a65e45545dd72afb1d460bf8b5efeaa54c760405160405180910390a35b5050505050565b60008060009054906101000a900473ffffffffffffffffffffffffffffffffffffffff1673ffffffffffffffffffffffffffffffffffffffff16630e666e49336040518263ffffffff1660e01b8152600401610d089190613e43565b602060405180830381865afa158015610d25573d6000803e3d6000fd5b505050506040513d601f19601f82011682018060405250810190610d499190613e73565b610d88576040517f08c379a0000000000000000000000000000000000000000000000000000000008152600401610d7f90613eec565b60405180910390fd5b60026000815480929190610d9b90614533565b9190505550600060025490506040518061010001604052808281526020018681526020018581526020013373ffffffffffffffffffffffffffffffffffffffff16815260200184151581526020014281526020014281526020016001151581525060056000838152602001908152602001600020600082015181600001556020820151816001019081610e2e9190614432565b506040820151816002019081610e449190614432565b5060608201518160030160006101000a81548173ffffffffffffffffffffffffffffffffffffffff021916908373ffffffffffffffffffffffffffffffffffffffff16021790555060808201518160030160146101000a81548160ff02191690831515021790555060a0820151816004015560c0820151816005015560e08201518160060160006101000a81548160ff021916908315150217905550905050600b60003373ffffffffffffffffffffffffffffffffffffffff1673ffffffffffffffffffffffffffffffffffffffff1681526020019081526020016000208190806001815401808255809150506001900390600052602060002001600090919091909150553373ffffffffffffffffffffffffffffffffffffffff16817fc25f6e8bf7e639fbb61fd8339c44e31b8fb54be0286fef0a0961aaa2f7b21d3887604051610f9091906145b4565b60405180910390a3809150509392505050565b6060816005600082815260200190815260200160002060060160009054906101000a900460ff16611009576040517f08c379a000000000000000000000000000000000000000000000000000000000815260040161100090613d82565b60405180910390fd5b826110148133612ccb565b611053576040517f08c379a000000000000000000000000000000000000000000000000000000000815260040161104a90614648565b60405180910390fd5b60066000858152602001908152602001600020805480602002602001604051908101604052809291908181526020016000905b8282101561115357838290600052602060002090600202016040518060600160405290816000820160009054906101000a900473ffffffffffffffffffffffffffffffffffffffff1673ffffffffffffffffffffffffffffffffffffffff1673ffffffffffffffffffffffffffffffffffffffff1681526020016000820160149054906101000a900460ff166003811115611124576111236132fe565b5b6003811115611136576111356132fe565b5b815260200160018201548152505081526020019060010190611086565b5050505092505050919050565b816005600082815260200190815260200160002060060160009054906101000a900460ff166111c4576040517f08c379a00000000000000000000000000000000000000000000000000000000081526004016111bb90613d82565b60405180910390fd5b826111d1813360026129d4565b806111e457506111e3813360036129d4565b5b611223576040517f08c379a000000000000000000000000000000000000000000000000000000000815260040161121a90613e14565b60405180910390fd5b6000805b6009600087815260200190815260200160002080549050811015611448578460096000888152602001908152602001600020828154811061126b5761126a613fe4565b5b9060005260206000209060050201600001540361143b5760096000878152602001908152602001600020600160096000898152602001908152602001600020805490506112b89190614668565b815481106112c9576112c8613fe4565b5b90600052602060002090600502016009600088815260200190815260200160002082815481106112fc576112fb613fe4565b5b906000526020600020906005020160008201548160000155600182015481600101556002820181600201908161133291906146b2565b50600382015481600301556004820160009054906101000a900473ffffffffffffffffffffffffffffffffffffffff168160040160006101000a81548173ffffffffffffffffffffffffffffffffffffffff021916908373ffffffffffffffffffffffffffffffffffffffff160217905550905050600960008781526020019081526020016000208054806113ca576113c961479a565b5b600190038181906000526020600020906005020160008082016000905560018201600090556002820160006113ff9190612e18565b60038201600090556004820160006101000a81549073ffffffffffffffffffffffffffffffffffffffff02191690555050905560019150611448565b8080600101915050611227565b5080611489576040517f08c379a000000000000000000000000000000000000000000000000000000000815260040161148090614815565b60405180910390fd5b60005b600a6000868152602001908152602001600020805490508110156115b05785600a600087815260200190815260200160002082815481106114d0576114cf613fe4565b5b9060005260206000200154036115a357600a60008681526020019081526020016000206001600a6000888152602001908152602001600020805490506115169190614668565b8154811061152757611526613fe4565b5b9060005260206000200154600a6000878152602001908152602001600020828154811061155757611556613fe4565b5b9060005260206000200181905550600a60008681526020019081526020016000208054806115885761158761479a565b5b600190038181906000526020600020016000905590556115b0565b808060010191505061148c565b5083857f8cc6bd08fbaa0094754b3a48c7e63909aa70ee5fc4aa45a3294c15b4c8f0348860405160405180910390a35050505050565b606060086000838152602001908152602001600020805480602002602001604051908101604052809291908181526020016000905b8282101561179457838290600052602060002090600702016040518061010001604052908160008201548152602001600182015481526020016002820160009054906101000a900473ffffffffffffffffffffffffffffffffffffffff1673ffffffffffffffffffffffffffffffffffffffff1673ffffffffffffffffffffffffffffffffffffffff1681526020016003820180546116b99061425f565b80601f01602080910402602001604051908101604052809291908181526020018280546116e59061425f565b80156117325780601f1061170757610100808354040283529160200191611732565b820191906000526020600020905b81548152906001019060200180831161171557829003601f168201915b5050505050815260200160048201548152602001600582015481526020016006820160009054906101000a900460ff161515151581526020016006820160019054906101000a900460ff1615151515815250508152602001906001019061161b565b505050509050919050565b6060816005600082815260200190815260200160002060060160009054906101000a900460ff16611805576040517f08c379a00000000000000000000000000000000000000000000000000000000081526004016117fc90613d82565b60405180910390fd5b826118108133612ccb565b61184f576040517f08c379a000000000000000000000000000000000000000000000000000000000815260040161184690614648565b60405180910390fd5b60096000858152602001908152602001600020805480602002602001604051908101604052809291908181526020016000905b828210156119ba57838290600052602060002090600502016040518060a001604052908160008201548152602001600182015481526020016002820180546118c99061425f565b80601f01602080910402602001604051908101604052809291908181526020018280546118f59061425f565b80156119425780601f1061191757610100808354040283529160200191611942565b820191906000526020600020905b81548152906001019060200180831161192557829003601f168201915b50505050508152602001600382015481526020016004820160009054906101000a900473ffffffffffffffffffffffffffffffffffffffff1673ffffffffffffffffffffffffffffffffffffffff1673ffffffffffffffffffffffffffffffffffffffff168152505081526020019060010190611882565b5050505092505050919050565b6119cf612e58565b816005600082815260200190815260200160002060060160009054906101000a900460ff16611a33576040517f08c379a0000000000000000000000000000000000000000000000000000000008152600401611a2a90613d82565b60405180910390fd5b82611a3e8133612ccb565b611a7d576040517f08c379a0000000000000000000000000000000000000000000000000000000008152600401611a7490614648565b60405180910390fd5b600560008581526020019081526020016000206040518061010001604052908160008201548152602001600182018054611ab69061425f565b80601f0160208091040260200160405190810160405280929190818152602001828054611ae29061425f565b8015611b2f5780601f10611b0457610100808354040283529160200191611b2f565b820191906000526020600020905b815481529060010190602001808311611b1257829003601f168201915b50505050508152602001600282018054611b489061425f565b80601f0160208091040260200160405190810160405280929190818152602001828054611b749061425f565b8015611bc15780601f10611b9657610100808354040283529160200191611bc1565b820191906000526020600020905b815481529060010190602001808311611ba457829003601f168201915b505050505081526020016003820160009054906101000a900473ffffffffffffffffffffffffffffffffffffffff1673ffffffffffffffffffffffffffffffffffffffff1673ffffffffffffffffffffffffffffffffffffffff1681526020016003820160149054906101000a900460ff1615151515815260200160048201548152602001600582015481526020016006820160009054906101000a900460ff16151515158152505092505050919050565b816005600082815260200190815260200160002060060160009054906101000a900460ff16611cd7576040517f08c379a0000000000000000000000000000000000000000000000000000000008152600401611cce90613d82565b60405180910390fd5b82611ce4813360026129d4565b80611cf75750611cf6813360036129d4565b5b611d36576040517f08c379a0000000000000000000000000000000000000000000000000000000008152600401611d2d90613e14565b60405180910390fd5b6005600085815260200190815260200160002060030160009054906101000a900473ffffffffffffffffffffffffffffffffffffffff1673ffffffffffffffffffffffffffffffffffffffff168373ffffffffffffffffffffffffffffffffffffffff1603611dda576040517f08c379a0000000000000000000000000000000000000000000000000000000008152600401611dd190614881565b60405180910390fd5b60005b600660008681526020019081526020016000208054905081101561209d578373ffffffffffffffffffffffffffffffffffffffff16600660008781526020019081526020016000208281548110611e3757611e36613fe4565b5b906000526020600020906002020160000160009054906101000a900473ffffffffffffffffffffffffffffffffffffffff1673ffffffffffffffffffffffffffffffffffffffff1603612090576006600086815260200190815260200160002060016006600088815260200190815260200160002080549050611eba9190614668565b81548110611ecb57611eca613fe4565b5b9060005260206000209060020201600660008781526020019081526020016000208281548110611efe57611efd613fe4565b5b90600052602060002090600202016000820160009054906101000a900473ffffffffffffffffffffffffffffffffffffffff168160000160006101000a81548173ffffffffffffffffffffffffffffffffffffffff021916908373ffffffffffffffffffffffffffffffffffffffff1602179055506000820160149054906101000a900460ff168160000160146101000a81548160ff02191690836003811115611fab57611faa6132fe565b5b02179055506001820154816001015590505060066000868152602001908152602001600020805480611fe057611fdf61479a565b5b6001900381819060005260206000209060020201600080820160006101000a81549073ffffffffffffffffffffffffffffffffffffffff02191690556000820160146101000a81549060ff02191690556001820160009055505090556120468486612d11565b8373ffffffffffffffffffffffffffffffffffffffff16857f1c4c9d2e56d0635d11bc47c997c6909a0d7061f55cbb8f4b27386db37553191c60405160405180910390a3506120d9565b8080600101915050611ddd565b506040517f08c379a00000000000000000000000000000000000000000000000000000000081526004016120d0906148ed565b60405180910390fd5b50505050565b6060600b60008373ffffffffffffffffffffffffffffffffffffffff1673ffffffffffffffffffffffffffffffffffffffff16815260200190815260200160002080548060200260200160405190810160405280929190818152602001828054801561216a57602002820191906000526020600020905b815481526020019060010190808311612156575b50505050509050919050565b6060816005600082815260200190815260200160002060060160009054906101000a900460ff166121dc576040517f08c379a00000000000000000000000000000000000000000000000000000000081526004016121d390613d82565b60405180910390fd5b826121e78133612ccb565b612226576040517f08c379a000000000000000000000000000000000000000000000000000000000815260040161221d90614648565b60405180910390fd5b60076000858152602001908152602001600020805480602002602001604051908101604052809291908181526020016000905b828210156123d257838290600052602060002090600702016040518061010001604052908160008201548152602001600182015481526020016002820180546122a19061425f565b80601f01602080910402602001604051908101604052809291908181526020018280546122cd9061425f565b801561231a5780601f106122ef5761010080835404028352916020019161231a565b820191906000526020600020905b8154815290600101906020018083116122fd57829003601f168201915b505050505081526020016003820160009054906101000a900473ffffffffffffffffffffffffffffffffffffffff1673ffffffffffffffffffffffffffffffffffffffff1673ffffffffffffffffffffffffffffffffffffffff16815260200160048201548152602001600582015481526020016006820160009054906101000a900460ff161515151581526020016006820160019054906101000a900460ff16151515158152505081526020019060010190612259565b5050505092505050919050565b836005600082815260200190815260200160002060060160009054906101000a900460ff16612443576040517f08c379a000000000000000000000000000000000000000000000000000000000815260040161243a90613d82565b60405180910390fd5b843373ffffffffffffffffffffffffffffffffffffffff166005600083815260200190815260200160002060030160009054906101000a900473ffffffffffffffffffffffffffffffffffffffff1673ffffffffffffffffffffffffffffffffffffffff16146124e8576040517f08c379a00000000000000000000000000000000000000000000000000000000081526004016124df9061497f565b60405180910390fd5b6000600560008881526020019081526020016000209050858160010190816125109190614432565b50848160020190816125229190614432565b50838160030160146101000a81548160ff021916908315150217905550428160050181905550867f4eeb55ffc22240256fd5d9ed2eb9d042f174aee7b85c070a728850992124475d60405160405180910390a250505050505050565b6000808461258c8133612ccb565b6125cb576040517f08c379a00000000000000000000000000000000000000000000000000000000081526004016125c290614648565b60405180910390fd5b856125d68133612b8a565b612615576040517f08c379a000000000000000000000000000000000000000000000000000000000815260040161260c906140af565b60405180910390fd5b612621873360016129d4565b612660576040517f08c379a00000000000000000000000000000000000000000000000000000000081526004016126579061411b565b60405180910390fd5b6003600081548092919061267390614533565b919050555060006003549050600760008981526020019081526020016000206040518061010001604052808381526020018a81526020018981526020013373ffffffffffffffffffffffffffffffffffffffff1681526020014281526020014281526020016000151581526020016001151581525090806001815401808255809150506001900390600052602060002090600702016000909190919091506000820151816000015560208201518160010155604082015181600201908161273a9190614432565b5060608201518160030160006101000a81548173ffffffffffffffffffffffffffffffffffffffff021916908373ffffffffffffffffffffffffffffffffffffffff1602179055506080820151816004015560a0820151816005015560c08201518160060160006101000a81548160ff02191690831515021790555060e08201518160060160016101000a81548160ff0219169083151502179055505050600460008154809291906127eb90614533565b919050555060006004549050600860008381526020019081526020016000206040518061010001604052808381526020018481526020013373ffffffffffffffffffffffffffffffffffffffff168152602001898152602001428152602001428152602001600015158152602001600115158152509080600181540180825580915050600190039060005260206000209060070201600090919091909150600082015181600001556020820151816001015560408201518160020160006101000a81548173ffffffffffffffffffffffffffffffffffffffff021916908373ffffffffffffffffffffffffffffffffffffffff16021790555060608201518160030190816128f99190614432565b506080820151816004015560a0820151816005015560c08201518160060160006101000a81548160ff02191690831515021790555060e08201518160060160016101000a81548160ff021916908315150217905550505081897f1e6d802614cfbd8344c18c6ed8012461635ed13bf362c1378dcc0cceb00c69588a60405161298191906145b4565b60405180910390a380827f20a7e8d1d92ba60fc8a7d275d3355af4c86db95aac4ae3b67ba6460874134440336040516129ba9190613e43565b60405180910390a381819550955050505050935093915050565b60008273ffffffffffffffffffffffffffffffffffffffff166005600086815260200190815260200160002060030160009054906101000a900473ffffffffffffffffffffffffffffffffffffffff1673ffffffffffffffffffffffffffffffffffffffff1603612a485760019050612b83565b60005b6006600086815260200190815260200160002080549050811015612b7d578373ffffffffffffffffffffffffffffffffffffffff16600660008781526020019081526020016000208281548110612aa557612aa4613fe4565b5b906000526020600020906002020160000160009054906101000a900473ffffffffffffffffffffffffffffffffffffffff1673ffffffffffffffffffffffffffffffffffffffff16148015612b615750826003811115612b0857612b076132fe565b5b600660008781526020019081526020016000208281548110612b2d57612b2c613fe4565b5b906000526020600020906002020160000160149054906101000a900460ff166003811115612b5e57612b5d6132fe565b5b10155b15612b70576001915050612b83565b8080600101915050612a4b565b50600090505b9392505050565b60008173ffffffffffffffffffffffffffffffffffffffff166005600085815260200190815260200160002060030160009054906101000a900473ffffffffffffffffffffffffffffffffffffffff1673ffffffffffffffffffffffffffffffffffffffff1603612bfe5760019050612cc5565b60005b6006600085815260200190815260200160002080549050811015612cbf578273ffffffffffffffffffffffffffffffffffffffff16600660008681526020019081526020016000208281548110612c5b57612c5a613fe4565b5b906000526020600020906002020160000160009054906101000a900473ffffffffffffffffffffffffffffffffffffffff1673ffffffffffffffffffffffffffffffffffffffff1603612cb2576001915050612cc5565b8080600101915050612c01565b50600090505b92915050565b60006005600084815260200190815260200160002060030160149054906101000a900460ff16612cfe5760019050612d0b565b612d088383612b8a565b90505b92915050565b6000600b60008473ffffffffffffffffffffffffffffffffffffffff1673ffffffffffffffffffffffffffffffffffffffff168152602001908152602001600020905060005b8180549050811015612e115782828281548110612d7757612d76613fe4565b5b906000526020600020015403612e04578160018380549050612d999190614668565b81548110612daa57612da9613fe4565b5b9060005260206000200154828281548110612dc857612dc7613fe4565b5b906000526020600020018190555081805480612de757612de661479a565b5b600190038181906000526020600020016000905590555050612e14565b8080600101915050612d57565b50505b5050565b508054612e249061425f565b6000825580601f10612e365750612e55565b601f016020900490600052602060002090810190612e549190612eb7565b5b50565b604051806101000160405280600081526020016060815260200160608152602001600073ffffffffffffffffffffffffffffffffffffffff16815260200160001515815260200160008152602001600081526020016000151581525090565b5b80821115612ed0576000816000905550600101612eb8565b5090565b6000604051905090565b600080fd5b600080fd5b6000819050919050565b612efb81612ee8565b8114612f0657600080fd5b50565b600081359050612f1881612ef2565b92915050565b600073ffffffffffffffffffffffffffffffffffffffff82169050919050565b6000612f4982612f1e565b9050919050565b612f5981612f3e565b8114612f6457600080fd5b50565b600081359050612f7681612f50565b92915050565b60048110612f8957600080fd5b50565b600081359050612f9b81612f7c565b92915050565b600080600060608486031215612fba57612fb9612ede565b5b6000612fc886828701612f09565b9350506020612fd986828701612f67565b9250506040612fea86828701612f8c565b9150509250925092565b600080fd5b600080fd5b6000601f19601f8301169050919050565b7f4e487b7100000000000000000000000000000000000000000000000000000000600052604160045260246000fd5b61304782612ffe565b810181811067ffffffffffffffff821117156130665761306561300f565b5b80604052505050565b6000613079612ed4565b9050613085828261303e565b919050565b600067ffffffffffffffff8211156130a5576130a461300f565b5b6130ae82612ffe565b9050602081019050919050565b82818337600083830152505050565b60006130dd6130d88461308a565b61306f565b9050828152602081018484840111156130f9576130f8612ff9565b5b6131048482856130bb565b509392505050565b600082601f83011261312157613120612ff4565b5b81356131318482602086016130ca565b91505092915050565b60008060006060848603121561315357613152612ede565b5b600061316186828701612f09565b935050602061317286828701612f09565b925050604084013567ffffffffffffffff81111561319357613192612ee3565b5b61319f8682870161310c565b9150509250925092565b60008115159050919050565b6131be816131a9565b81146131c957600080fd5b50565b6000813590506131db816131b5565b92915050565b6000806000606084860312156131fa576131f9612ede565b5b600084013567ffffffffffffffff81111561321857613217612ee3565b5b6132248682870161310c565b935050602084013567ffffffffffffffff81111561324557613244612ee3565b5b6132518682870161310c565b9250506040613262868287016131cc565b9150509250925092565b61327581612ee8565b82525050565b6000602082019050613290600083018461326c565b92915050565b6000602082840312156132ac576132ab612ede565b5b60006132ba84828501612f09565b91505092915050565b600081519050919050565b600082825260208201905092915050565b6000819050602082019050919050565b6132f881612f3e565b82525050565b7f4e487b7100000000000000000000000000000000000000000000000000000000600052602160045260246000fd5b6004811061333e5761333d6132fe565b5b50565b600081905061334f8261332d565b919050565b600061335f82613341565b9050919050565b61336f81613354565b82525050565b61337e81612ee8565b82525050565b60608201600082015161339a60008501826132ef565b5060208201516133ad6020850182613366565b5060408201516133c06040850182613375565b50505050565b60006133d28383613384565b60608301905092915050565b6000602082019050919050565b60006133f6826132c3565b61340081856132ce565b935061340b836132df565b8060005b8381101561343c57815161342388826133c6565b975061342e836133de565b92505060018101905061340f565b5085935050505092915050565b6000602082019050818103600083015261346381846133eb565b905092915050565b6000806040838503121561348257613481612ede565b5b600061349085828601612f09565b92505060206134a185828601612f09565b9150509250929050565b600081519050919050565b600082825260208201905092915050565b6000819050602082019050919050565b600081519050919050565b600082825260208201905092915050565b60005b838110156135115780820151818401526020810190506134f6565b60008484015250505050565b6000613528826134d7565b61353281856134e2565b93506135428185602086016134f3565b61354b81612ffe565b840191505092915050565b61355f816131a9565b82525050565b60006101008301600083015161357e6000860182613375565b5060208301516135916020860182613375565b5060408301516135a460408601826132ef565b50606083015184820360608601526135bc828261351d565b91505060808301516135d16080860182613375565b5060a08301516135e460a0860182613375565b5060c08301516135f760c0860182613556565b5060e083015161360a60e0860182613556565b508091505092915050565b60006136218383613565565b905092915050565b6000602082019050919050565b6000613641826134ab565b61364b81856134b6565b93508360208202850161365d856134c7565b8060005b85811015613699578484038952815161367a8582613615565b945061368583613629565b925060208a01995050600181019050613661565b50829750879550505050505092915050565b600060208201905081810360008301526136c58184613636565b905092915050565b600081519050919050565b600082825260208201905092915050565b6000819050602082019050919050565b600060a0830160008301516137116000860182613375565b5060208301516137246020860182613375565b506040830151848203604086015261373c828261351d565b91505060608301516137516060860182613375565b50608083015161376460808601826132ef565b508091505092915050565b600061377b83836136f9565b905092915050565b6000602082019050919050565b600061379b826136cd565b6137a581856136d8565b9350836020820285016137b7856136e9565b8060005b858110156137f357848403895281516137d4858261376f565b94506137df83613783565b925060208a019950506001810190506137bb565b50829750879550505050505092915050565b6000602082019050818103600083015261381f8184613790565b905092915050565b6000610100830160008301516138406000860182613375565b5060208301518482036020860152613858828261351d565b91505060408301518482036040860152613872828261351d565b915050606083015161388760608601826132ef565b50608083015161389a6080860182613556565b5060a08301516138ad60a0860182613375565b5060c08301516138c060c0860182613375565b5060e08301516138d360e0860182613556565b508091505092915050565b600060208201905081810360008301526138f88184613827565b905092915050565b6000806040838503121561391757613916612ede565b5b600061392585828601612f09565b925050602061393685828601612f67565b9150509250929050565b60006020828403121561395657613955612ede565b5b600061396484828501612f67565b91505092915050565b600081519050919050565b600082825260208201905092915050565b6000819050602082019050919050565b60006139a58383613375565b60208301905092915050565b6000602082019050919050565b60006139c98261396d565b6139d38185613978565b93506139de83613989565b8060005b83811015613a0f5781516139f68882613999565b9750613a01836139b1565b9250506001810190506139e2565b5085935050505092915050565b60006020820190508181036000830152613a3681846139be565b905092915050565b600081519050919050565b600082825260208201905092915050565b6000819050602082019050919050565b600061010083016000830151613a836000860182613375565b506020830151613a966020860182613375565b5060408301518482036040860152613aae828261351d565b9150506060830151613ac360608601826132ef565b506080830151613ad66080860182613375565b5060a0830151613ae960a0860182613375565b5060c0830151613afc60c0860182613556565b5060e0830151613b0f60e0860182613556565b508091505092915050565b6000613b268383613a6a565b905092915050565b6000602082019050919050565b6000613b4682613a3e565b613b508185613a49565b935083602082028501613b6285613a5a565b8060005b85811015613b9e5784840389528151613b7f8582613b1a565b9450613b8a83613b2e565b925060208a01995050600181019050613b66565b50829750879550505050505092915050565b60006020820190508181036000830152613bca8184613b3b565b905092915050565b60008060008060808587031215613bec57613beb612ede565b5b6000613bfa87828801612f09565b945050602085013567ffffffffffffffff811115613c1b57613c1a612ee3565b5b613c278782880161310c565b935050604085013567ffffffffffffffff811115613c4857613c47612ee3565b5b613c548782880161310c565b9250506060613c65878288016131cc565b91505092959194509250565b600080600060608486031215613c8a57613c89612ede565b5b6000613c9886828701612f09565b935050602084013567ffffffffffffffff811115613cb957613cb8612ee3565b5b613cc58682870161310c565b925050604084013567ffffffffffffffff811115613ce657613ce5612ee3565b5b613cf28682870161310c565b9150509250925092565b6000604082019050613d11600083018561326c565b613d1e602083018461326c565b9392505050565b600082825260208201905092915050565b7f576f726b737061636520646f6573206e6f742065786973740000000000000000600082015250565b6000613d6c601883613d25565b9150613d7782613d36565b602082019050919050565b60006020820190508181036000830152613d9b81613d5f565b9050919050565b7f4f6e6c7920776f726b73706163652061646d696e2063616e20706572666f726d60008201527f207468697320616374696f6e0000000000000000000000000000000000000000602082015250565b6000613dfe602c83613d25565b9150613e0982613da2565b604082019050919050565b60006020820190508181036000830152613e2d81613df1565b9050919050565b613e3d81612f3e565b82525050565b6000602082019050613e586000830184613e34565b92915050565b600081519050613e6d816131b5565b92915050565b600060208284031215613e8957613e88612ede565b5b6000613e9784828501613e5e565b91505092915050565b7f55736572206e6f74207265676973746572656400000000000000000000000000600082015250565b6000613ed6601383613d25565b9150613ee182613ea0565b602082019050919050565b60006020820190508181036000830152613f0581613ec9565b9050919050565b7f4f776e657220697320616c72656164792061206d656d62657200000000000000600082015250565b6000613f42601983613d25565b9150613f4d82613f0c565b602082019050919050565b60006020820190508181036000830152613f7181613f35565b9050919050565b7f43616e6e6f742061737369676e204f776e657220726f6c650000000000000000600082015250565b6000613fae601883613d25565b9150613fb982613f78565b602082019050919050565b60006020820190508181036000830152613fdd81613fa1565b9050919050565b7f4e487b7100000000000000000000000000000000000000000000000000000000600052603260045260246000fd5b61401c81613354565b82525050565b60006020820190506140376000830184614013565b92915050565b7f4f6e6c7920776f726b7370616365206d656d6265722063616e20706572666f7260008201527f6d207468697320616374696f6e00000000000000000000000000000000000000602082015250565b6000614099602d83613d25565b91506140a48261403d565b604082019050919050565b600060208201905081810360008301526140c88161408c565b9050919050565b7f436f6e7472696275746f7220726f6c6520726571756972656400000000000000600082015250565b6000614105601983613d25565b9150614110826140cf565b602082019050919050565b60006020820190508181036000830152614134816140f8565b9050919050565b6000819050919050565b600060ff82169050919050565b6000819050919050565b600061417761417261416d8461413b565b614152565b614145565b9050919050565b6141878161415c565b82525050565b60006060820190506141a2600083018661326c565b6141af6020830185613e34565b6141bc604083018461417e565b949350505050565b7f52656164207065726d697373696f6e2072657175697265640000000000000000600082015250565b60006141fa601883613d25565b9150614205826141c4565b602082019050919050565b60006020820190508181036000830152614229816141ed565b9050919050565b7f4e487b7100000000000000000000000000000000000000000000000000000000600052602260045260246000fd5b6000600282049050600182168061427757607f821691505b60208210810361428a57614289614230565b5b50919050565b60008190508160005260206000209050919050565b60006020601f8301049050919050565b600082821b905092915050565b6000600883026142f27fffffffffffffffffffffffffffffffffffffffffffffffffffffffffffffffff826142b5565b6142fc86836142b5565b95508019841693508086168417925050509392505050565b600061432f61432a61432584612ee8565b614152565b612ee8565b9050919050565b6000819050919050565b61434983614314565b61435d61435582614336565b8484546142c2565b825550505050565b600090565b614372614365565b61437d818484614340565b505050565b5b818110156143a15761439660008261436a565b600181019050614383565b5050565b601f8211156143e6576143b781614290565b6143c0846142a5565b810160208510156143cf578190505b6143e36143db856142a5565b830182614382565b50505b505050565b600082821c905092915050565b6000614409600019846008026143eb565b1980831691505092915050565b600061442283836143f8565b9150826002028217905092915050565b61443b826134d7565b67ffffffffffffffff8111156144545761445361300f565b5b61445e825461425f565b6144698282856143a5565b600060209050601f83116001811461449c576000841561448a578287015190505b6144948582614416565b8655506144fc565b601f1984166144aa86614290565b60005b828110156144d2578489015182556001820191506020850194506020810190506144ad565b868310156144ef57848901516144eb601f8916826143f8565b8355505b6001600288020188555050505b505050505050565b7f4e487b7100000000000000000000000000000000000000000000000000000000600052601160045260246000fd5b600061453e82612ee8565b91507fffffffffffffffffffffffffffffffffffffffffffffffffffffffffffffffff82036145705761456f614504565b5b600182019050919050565b6000614586826134d7565b6145908185613d25565b93506145a08185602086016134f3565b6145a981612ffe565b840191505092915050565b600060208201905081810360008301526145ce818461457b565b905092915050565b7f5573657220646f6573206e6f7420686176652061636365737320746f2074686960008201527f7320776f726b7370616365000000000000000000000000000000000000000000602082015250565b6000614632602b83613d25565b915061463d826145d6565b604082019050919050565b6000602082019050818103600083015261466181614625565b9050919050565b600061467382612ee8565b915061467e83612ee8565b925082820390508181111561469657614695614504565b5b92915050565b6000815490506146ab8161425f565b9050919050565b8181036146c0575050614798565b6146c98261469c565b67ffffffffffffffff8111156146e2576146e161300f565b5b6146ec825461425f565b6146f78282856143a5565b6000601f8311600181146147265760008415614714578287015490505b61471e8582614416565b865550614791565b601f19841661473487614290565b965061473f86614290565b60005b8281101561476757848901548255600182019150600185019450602081019050614742565b868310156147845784890154614780601f8916826143f8565b8355505b6001600288020188555050505b5050505050505b565b7f4e487b7100000000000000000000000000000000000000000000000000000000600052603160045260246000fd5b7f446f63756d656e74206e6f74206c696e6b656420746f20776f726b7370616365600082015250565b60006147ff602083613d25565b915061480a826147c9565b602082019050919050565b6000602082019050818103600083015261482e816147f2565b9050919050565b7f43616e6e6f742072656d6f766520776f726b7370616365206f776e6572000000600082015250565b600061486b601d83613d25565b915061487682614835565b602082019050919050565b6000602082019050818103600083015261489a8161485e565b9050919050565b7f4d656d626572206e6f7420666f756e6420696e20776f726b7370616365000000600082015250565b60006148d7601d83613d25565b91506148e2826148a1565b602082019050919050565b60006020820190508181036000830152614906816148ca565b9050919050565b7f4f6e6c7920776f726b7370616365206f776e65722063616e20706572666f726d60008201527f207468697320616374696f6e0000000000000000000000000000000000000000602082015250565b6000614969602c83613d25565b91506149748261490d565b604082019050919050565b600060208201905081810360008301526149988161495c565b905091905056fea2646970667358221220f49259f5a8c1fb1acee8db9591d273b71455b0ecc1e8b81429388195e1d6dd7264736f6c63430008180033",
  "linkReferences": {},
  "deployedLinkReferences": {}
}