{
  "_format": "hh-sol-artifact-1",
  "contractName": "DocumentManager",
  "sourceName": "contracts/DocumentManager.sol",
  "abi": [
    {
      "inputs": [
        {
          "internalType": "address",
          "name": "_userRegistryAddress",
          "type": "address"
        }
      ],
      "stateMutability": "nonpayable",
      "type": "constructor"
    },
    {
      "anonymous": false,
      "inputs": [
        {
          "indexed": true,
          "internalType": "uint256",
          "name": "documentId",
          "type": "uint256"
        },
        {
          "indexed": true,
          "internalType": "address",
          "name": "user",
          "type": "address"
        },
        {
          "indexed": false,
          "internalType": "uint8",
          "name": "permission",
          "type": "uint8"
        }
      ],
      "name": "AccessControlChanged",
      "type": "event"
    },
    {
      "anonymous": false,
      "inputs": [
        {
          "indexed": true,
          "internalType": "uint256",
          "name": "documentId",
          "type": "uint256"
        },
        {
          "indexed": true,
          "internalType": "address",
          "name": "owner",
          "type": "address"
        },
        {
          "indexed": false,
          "internalType": "string",
          "name": "ipfsHash",
          "type": "string"
        }
      ],
      "name": "DocumentCreated",
      "type": "event"
    },
    {
      "anonymous": false,
      "inputs": [
        {
          "indexed": true,
          "internalType": "uint256",
          "name": "documentId",
          "type": "uint256"
        },
        {
          "indexed": false,
          "internalType": "string",
          "name": "newIpfsHash",
          "type": "string"
        }
      ],
      "name": "DocumentUpdated",
      "type": "event"
    },
    {
      "anonymous": false,
      "inputs": [
        {
          "indexed": true,
          "internalType": "uint256",
          "name": "documentId",
          "type": "uint256"
        },
        {
          "indexed": false,
          "internalType": "bool",
          "name": "downloadable",
          "type": "bool"
        }
      ],
      "name": "DownloadPermissionChanged",
      "type": "event"
    },
    {
      "anonymous": false,
      "inputs": [
        {
          "indexed": true,
          "internalType": "uint256",
          "name": "documentId",
          "type": "uint256"
        }
      ],
      "name": "EditorNotesUpdated",
      "type": "event"
    },
    {
      "anonymous": false,
      "inputs": [
        {
          "indexed": true,
          "internalType": "uint256",
          "name": "documentId",
          "type": "uint256"
        },
        {
          "indexed": false,
          "internalType": "uint256",
          "name": "versionNumber",
          "type": "uint256"
        }
      ],
      "name": "NewVersionAdded",
      "type": "event"
    },
    {
      "anonymous": false,
      "inputs": [
        {
          "indexed": true,
          "internalType": "uint256",
          "name": "documentId",
          "type": "uint256"
        }
      ],
      "name": "TagsUpdated",
      "type": "event"
    },
    {
      "anonymous": false,
      "inputs": [
        {
          "indexed": true,
          "internalType": "uint256",
          "name": "documentId",
          "type": "uint256"
        },
        {
          "indexed": false,
          "internalType": "enum DocumentManager.Visibility",
          "name": "newVisibility",
          "type": "uint8"
        }
      ],
      "name": "VisibilityChanged",
      "type": "event"
    },
    {
      "inputs": [
        {
          "internalType": "uint256",
          "name": "documentId",
          "type": "uint256"
        },
        {
          "internalType": "string",
          "name": "newIpfsHash",
          "type": "string"
        },
        {
          "internalType": "uint256",
          "name": "size",
          "type": "uint256"
        },
        {
          "internalType": "string",
          "name": "changeNotes",
          "type": "string"
        }
      ],
      "name": "addDocumentVersion",
      "outputs": [],
      "stateMutability": "nonpayable",
      "type": "function"
    },
    {
      "inputs": [
        {
          "internalType": "uint256",
          "name": "documentId",
          "type": "uint256"
        },
        {
          "internalType": "address",
          "name": "user",
          "type": "address"
        },
        {
          "internalType": "uint8",
          "name": "permission",
          "type": "uint8"
        }
      ],
      "name": "checkPermission",
      "outputs": [
        {
          "internalType": "bool",
          "name": "",
          "type": "bool"
        }
      ],
      "stateMutability": "view",
      "type": "function"
    },
    {
      "inputs": [
        {
          "internalType": "string",
          "name": "name",
          "type": "string"
        },
        {
          "internalType": "string",
          "name": "ipfsHash",
          "type": "string"
        },
        {
          "internalType": "string",
          "name": "documentType",
          "type": "string"
        },
        {
          "internalType": "uint256",
          "name": "size",
          "type": "uint256"
        },
        {
          "internalType": "enum DocumentManager.Visibility",
          "name": "visibility",
          "type": "uint8"
        },
        {
          "internalType": "bool",
          "name": "downloadable",
          "type": "bool"
        },
        {
          "internalType": "string[]",
          "name": "tags",
          "type": "string[]"
        },
        {
          "internalType": "string",
          "name": "editorNotes",
          "type": "string"
        }
      ],
      "name": "createDocument",
      "outputs": [
        {
          "internalType": "uint256",
          "name": "",
          "type": "uint256"
        }
      ],
      "stateMutability": "nonpayable",
      "type": "function"
    },
    {
      "inputs": [
        {
          "internalType": "uint256",
          "name": "documentId",
          "type": "uint256"
        }
      ],
      "name": "getDocumentMetadata",
      "outputs": [
        {
          "internalType": "string",
          "name": "name",
          "type": "string"
        },
        {
          "internalType": "string",
          "name": "ipfsHash",
          "type": "string"
        },
        {
          "internalType": "string",
          "name": "documentType",
          "type": "string"
        },
        {
          "internalType": "uint256",
          "name": "size",
          "type": "uint256"
        },
        {
          "internalType": "enum DocumentManager.Visibility",
          "name": "visibility",
          "type": "uint8"
        },
        {
          "internalType": "bool",
          "name": "downloadable",
          "type": "bool"
        },
        {
          "internalType": "uint256",
          "name": "createdAt",
          "type": "uint256"
        },
        {
          "internalType": "uint256",
          "name": "lastUpdated",
          "type": "uint256"
        },
        {
          "internalType": "string[]",
          "name": "tags",
          "type": "string[]"
        },
        {
          "internalType": "string",
          "name": "editorNotes",
          "type": "string"
        },
        {
          "internalType": "address",
          "name": "owner",
          "type": "address"
        }
      ],
      "stateMutability": "view",
      "type": "function"
    },
    {
      "inputs": [
        {
          "internalType": "uint256",
          "name": "documentId",
          "type": "uint256"
        }
      ],
      "name": "getDocumentVersions",
      "outputs": [
        {
          "components": [
            {
              "internalType": "uint256",
              "name": "versionNumber",
              "type": "uint256"
            },
            {
              "internalType": "string",
              "name": "ipfsHash",
              "type": "string"
            },
            {
              "internalType": "address",
              "name": "updatedBy",
              "type": "address"
            },
            {
              "internalType": "uint256",
              "name": "updatedAt",
              "type": "uint256"
            },
            {
              "internalType": "string",
              "name": "changeNotes",
              "type": "string"
            }
          ],
          "internalType": "struct DocumentManager.Version[]",
          "name": "",
          "type": "tuple[]"
        }
      ],
      "stateMutability": "view",
      "type": "function"
    },
    {
      "inputs": [
        {
          "internalType": "string",
          "name": "tag",
          "type": "string"
        }
      ],
      "name": "getDocumentsByTag",
      "outputs": [
        {
          "internalType": "uint256[]",
          "name": "",
          "type": "uint256[]"
        }
      ],
      "stateMutability": "view",
      "type": "function"
    },
    {
      "inputs": [
        {
          "internalType": "address",
          "name": "user",
          "type": "address"
        }
      ],
      "name": "getUserDocuments",
      "outputs": [
        {
          "internalType": "uint256[]",
          "name": "",
          "type": "uint256[]"
        }
      ],
      "stateMutability": "view",
      "type": "function"
    },
    {
      "inputs": [
        {
          "internalType": "uint256",
          "name": "documentId",
          "type": "uint256"
        },
        {
          "internalType": "address",
          "name": "user",
          "type": "address"
        }
      ],
      "name": "removeUserAccess",
      "outputs": [],
      "stateMutability": "nonpayable",
      "type": "function"
    },
    {
      "inputs": [
        {
          "internalType": "uint256",
          "name": "documentId",
          "type": "uint256"
        },
        {
          "internalType": "enum DocumentManager.Visibility",
          "name": "visibility",
          "type": "uint8"
        }
      ],
      "name": "setDocumentVisibility",
      "outputs": [],
      "stateMutability": "nonpayable",
      "type": "function"
    },
    {
      "inputs": [
        {
          "internalType": "uint256",
          "name": "documentId",
          "type": "uint256"
        },
        {
          "internalType": "bool",
          "name": "downloadable",
          "type": "bool"
        }
      ],
      "name": "setDownloadPermission",
      "outputs": [],
      "stateMutability": "nonpayable",
      "type": "function"
    },
    {
      "inputs": [
        {
          "internalType": "uint256",
          "name": "documentId",
          "type": "uint256"
        },
        {
          "internalType": "address",
          "name": "user",
          "type": "address"
        },
        {
          "internalType": "uint8",
          "name": "permission",
          "type": "uint8"
        }
      ],
      "name": "setUserAccess",
      "outputs": [],
      "stateMutability": "nonpayable",
      "type": "function"
    },
    {
      "inputs": [
        {
          "internalType": "uint256",
          "name": "documentId",
          "type": "uint256"
        },
        {
          "internalType": "string",
          "name": "name",
          "type": "string"
        },
        {
          "internalType": "string[]",
          "name": "tags",
          "type": "string[]"
        },
        {
          "internalType": "string",
          "name": "editorNotes",
          "type": "string"
        }
      ],
      "name": "updateDocumentMetadata",
      "outputs": [],
      "stateMutability": "nonpayable",
      "type": "function"
    }
  ],
  "bytecode": "0x60806040523480156200001157600080fd5b5060405162003e7138038062003e718339818101604052810190620000379190620000f0565b806000806101000a81548173ffffffffffffffffffffffffffffffffffffffff021916908373ffffffffffffffffffffffffffffffffffffffff16021790555060006001819055505062000122565b600080fd5b600073ffffffffffffffffffffffffffffffffffffffff82169050919050565b6000620000b8826200008b565b9050919050565b620000ca81620000ab565b8114620000d657600080fd5b50565b600081519050620000ea81620000bf565b92915050565b60006020828403121562000109576200010862000086565b5b60006200011984828501620000d9565b91505092915050565b613d3f80620001326000396000f3fe608060405234801561001057600080fd5b50600436106100b45760003560e01c806390a4b1621161007157806390a4b16214610189578063bfc1f171146101b9578063ccb46896146101d5578063cfa41db014610205578063e245affc14610221578063ff86f5001461025b576100b4565b806311fda32c146100b9578063491f5663146100e957806360df3dda146101055780636bacd8be14610121578063762a75ad146101515780638084caab1461016d575b600080fd5b6100d360048036038101906100ce9190612799565b61028b565b6040516100e091906128aa565b60405180910390f35b61010360048036038101906100fe91906129de565b610322565b005b61011f600480360381019061011a9190612af7565b6105fa565b005b61013b60048036038101906101369190612b94565b61099f565b6040516101489190612ce5565b60405180910390f35b61016b60048036038101906101669190612d00565b610e7c565b005b61018760048036038101906101829190612d79565b61101c565b005b6101a3600480360381019061019e9190612dcc565b61152e565b6040516101b091906128aa565b60405180910390f35b6101d360048036038101906101ce9190612df9565b6115c5565b005b6101ef60048036038101906101ea9190612d79565b611857565b6040516101fc9190612ea7565b60405180910390f35b61021f600480360381019061021a9190612ec2565b6118d2565b005b61023b60048036038101906102369190612f02565b611a62565b6040516102529b9a99989796959493929190613140565b60405180910390f35b61027560048036038101906102709190612f02565b611ed0565b604051610282919061335c565b60405180910390f35b60606000826040516020016102a091906133ba565b6040516020818303038152906040528051906020012090506006600082815260200190815260200160002080548060200260200160405190810160405280929190818152602001828054801561031557602002820191906000526020600020905b815481526020019060010190808311610301575b5050505050915050919050565b8360026000828152602001908152602001600020600b0160009054906101000a900460ff16610386576040517f08c379a000000000000000000000000000000000000000000000000000000000815260040161037d9061341d565b60405180910390fd5b843373ffffffffffffffffffffffffffffffffffffffff166002600083815260200190815260200160002060010160009054906101000a900473ffffffffffffffffffffffffffffffffffffffff1673ffffffffffffffffffffffffffffffffffffffff161461042b576040517f08c379a0000000000000000000000000000000000000000000000000000000008152600401610422906134af565b60405180910390fd5b60006002600088815260200190815260200160002090508581600201908161045391906136db565b5060005b81600901805490508110156104c857600082600901828154811061047e5761047d6137ad565b5b90600052602060002001604051602001610498919061385f565b6040516020818303038152906040528051906020012090506104ba8982612180565b508080600101915050610457565b50848160090190805190602001906104e1929190612565565b5060005b855181101561057b576000868281518110610503576105026137ad565b5b602002602001015160405160200161051b91906133ba565b604051602081830303815290604052805190602001209050600660008281526020019081526020016000208990806001815401808255809150506001900390600052602060002001600090919091909150555080806001019150506104e5565b508381600a01908161058d91906136db565b50428160080181905550867f8a88c683a941a45a025ed056f59639dcb2e5ecb771cf5ea2f2e94e0c3d0693dc60405160405180910390a2867fbe575ea8e4aa82637ea6c23bfde73dd411ec9a87774bf857cd8a7b902fad3eb960405160405180910390a250505050505050565b8160026000828152602001908152602001600020600b0160009054906101000a900460ff1661065e576040517f08c379a00000000000000000000000000000000000000000000000000000000081526004016106559061341d565b60405180910390fd5b823373ffffffffffffffffffffffffffffffffffffffff166002600083815260200190815260200160002060010160009054906101000a900473ffffffffffffffffffffffffffffffffffffffff1673ffffffffffffffffffffffffffffffffffffffff1614610703576040517f08c379a00000000000000000000000000000000000000000000000000000000081526004016106fa906134af565b60405180910390fd5b60005b6003600086815260200190815260200160002080549050811015610997578373ffffffffffffffffffffffffffffffffffffffff166003600087815260200190815260200160002082815481106107605761075f6137ad565b5b9060005260206000200160000160009054906101000a900473ffffffffffffffffffffffffffffffffffffffff1673ffffffffffffffffffffffffffffffffffffffff160361098a5760036000868152602001908152602001600020600160036000888152602001908152602001600020805490506107df91906138a5565b815481106107f0576107ef6137ad565b5b9060005260206000200160036000878152602001908152602001600020828154811061081f5761081e6137ad565b5b906000526020600020016000820160009054906101000a900473ffffffffffffffffffffffffffffffffffffffff168160000160006101000a81548173ffffffffffffffffffffffffffffffffffffffff021916908373ffffffffffffffffffffffffffffffffffffffff1602179055506000820160149054906101000a900460ff168160000160146101000a81548160ff021916908360ff160217905550905050600360008681526020019081526020016000208054806108e4576108e36138d9565b5b60019003818190600052602060002001600080820160006101000a81549073ffffffffffffffffffffffffffffffffffffffff02191690556000820160146101000a81549060ff0219169055505090558373ffffffffffffffffffffffffffffffffffffffff16857fbb407341deaae3a4d01ad84dfdaecc0c5c2927981edde61a719fe69f8423475c600060405161097c9190613943565b60405180910390a350610999565b8080600101915050610706565b505b50505050565b60008060009054906101000a900473ffffffffffffffffffffffffffffffffffffffff1673ffffffffffffffffffffffffffffffffffffffff16630e666e49336040518263ffffffff1660e01b81526004016109fb919061395e565b602060405180830381865afa158015610a18573d6000803e3d6000fd5b505050506040513d601f19601f82011682018060405250810190610a3c919061398e565b610a7b576040517f08c379a0000000000000000000000000000000000000000000000000000000008152600401610a7290613a07565b60405180910390fd5b60016000815480929190610a8e90613a27565b9190505550600060015490506000600260008381526020019081526020016000209050818160000181905550338160010160006101000a81548173ffffffffffffffffffffffffffffffffffffffff021916908373ffffffffffffffffffffffffffffffffffffffff1602179055508a816002019081610b0e91906136db565b5089816003019081610b2091906136db565b5088816004019081610b3291906136db565b50878160050181905550868160060160006101000a81548160ff02191690836002811115610b6357610b62612fae565b5b0217905550858160060160016101000a81548160ff02191690831515021790555042816007018190555042816008018190555084816009019080519060200190610bae929190612565565b508381600a019081610bc091906136db565b50600181600b0160006101000a81548160ff021916908315150217905550600560003373ffffffffffffffffffffffffffffffffffffffff1673ffffffffffffffffffffffffffffffffffffffff16815260200190815260200160002082908060018154018082558091505060019003906000526020600020016000909190919091505560006040518060a00160405280600181526020018c81526020013373ffffffffffffffffffffffffffffffffffffffff1681526020014281526020016040518060400160405280600f81526020017f496e697469616c2076657273696f6e0000000000000000000000000000000000815250815250905060046000848152602001908152602001600020819080600181540180825580915050600190039060005260206000209060050201600090919091909150600082015181600001556020820151816001019081610d1791906136db565b5060408201518160020160006101000a81548173ffffffffffffffffffffffffffffffffffffffff021916908373ffffffffffffffffffffffffffffffffffffffff160217905550606082015181600301556080820151816004019081610d7e91906136db565b50505060005b8651811015610e1a576000878281518110610da257610da16137ad565b5b6020026020010151604051602001610dba91906133ba565b60405160208183030381529060405280519060200120905060066000828152602001908152602001600020859080600181540180825580915050600190039060005260206000200160009091909190915055508080600101915050610d84565b503373ffffffffffffffffffffffffffffffffffffffff16837f3d98d9ada8a743f0029d93e7cb583caff0deefd2c093c800064d6146cd5625068d604051610e629190613a6f565b60405180910390a382935050505098975050505050505050565b8160026000828152602001908152602001600020600b0160009054906101000a900460ff16610ee0576040517f08c379a0000000000000000000000000000000000000000000000000000000008152600401610ed79061341d565b60405180910390fd5b823373ffffffffffffffffffffffffffffffffffffffff166002600083815260200190815260200160002060010160009054906101000a900473ffffffffffffffffffffffffffffffffffffffff1673ffffffffffffffffffffffffffffffffffffffff1614610f85576040517f08c379a0000000000000000000000000000000000000000000000000000000008152600401610f7c906134af565b60405180910390fd5b826002600086815260200190815260200160002060060160006101000a81548160ff02191690836002811115610fbe57610fbd612fae565b5b0217905550426002600086815260200190815260200160002060080181905550837f7f7fe921ebf1bfd4e010eefb4491e40be36ac8e94abfdab0ab788f207f3785d18460405161100e9190613a91565b60405180910390a250505050565b8260026000828152602001908152602001600020600b0160009054906101000a900460ff16611080576040517f08c379a00000000000000000000000000000000000000000000000000000000081526004016110779061341d565b60405180910390fd5b833373ffffffffffffffffffffffffffffffffffffffff166002600083815260200190815260200160002060010160009054906101000a900473ffffffffffffffffffffffffffffffffffffffff1673ffffffffffffffffffffffffffffffffffffffff1614611125576040517f08c379a000000000000000000000000000000000000000000000000000000000815260040161111c906134af565b60405180910390fd5b60008054906101000a900473ffffffffffffffffffffffffffffffffffffffff1673ffffffffffffffffffffffffffffffffffffffff16630e666e49856040518263ffffffff1660e01b815260040161117e919061395e565b602060405180830381865afa15801561119b573d6000803e3d6000fd5b505050506040513d601f19601f820116820180604052508101906111bf919061398e565b6111fe576040517f08c379a00000000000000000000000000000000000000000000000000000000081526004016111f590613a07565b60405180910390fd5b3373ffffffffffffffffffffffffffffffffffffffff168473ffffffffffffffffffffffffffffffffffffffff160361126c576040517f08c379a000000000000000000000000000000000000000000000000000000000815260040161126390613b1e565b60405180910390fd5b60028360ff1611156112b3576040517f08c379a00000000000000000000000000000000000000000000000000000000081526004016112aa90613b8a565b60405180910390fd5b60005b6003600087815260200190815260200160002080549050811015611406578473ffffffffffffffffffffffffffffffffffffffff166003600088815260200190815260200160002082815481106113105761130f6137ad565b5b9060005260206000200160000160009054906101000a900473ffffffffffffffffffffffffffffffffffffffff1673ffffffffffffffffffffffffffffffffffffffff16036113f9578360036000888152602001908152602001600020828154811061137f5761137e6137ad565b5b9060005260206000200160000160146101000a81548160ff021916908360ff1602179055508473ffffffffffffffffffffffffffffffffffffffff16867fbb407341deaae3a4d01ad84dfdaecc0c5c2927981edde61a719fe69f8423475c866040516113eb9190613bb9565b60405180910390a350611527565b80806001019150506112b6565b506003600086815260200190815260200160002060405180604001604052808673ffffffffffffffffffffffffffffffffffffffff1681526020018560ff168152509080600181540180825580915050600190039060005260206000200160009091909190915060008201518160000160006101000a81548173ffffffffffffffffffffffffffffffffffffffff021916908373ffffffffffffffffffffffffffffffffffffffff16021790555060208201518160000160146101000a81548160ff021916908360ff16021790555050508373ffffffffffffffffffffffffffffffffffffffff16857fbb407341deaae3a4d01ad84dfdaecc0c5c2927981edde61a719fe69f8423475c8560405161151e9190613bb9565b60405180910390a35b5050505050565b6060600560008373ffffffffffffffffffffffffffffffffffffffff1673ffffffffffffffffffffffffffffffffffffffff1681526020019081526020016000208054806020026020016040519081016040528092919081815260200182805480156115b957602002820191906000526020600020905b8154815260200190600101908083116115a5575b50505050509050919050565b8360026000828152602001908152602001600020600b0160009054906101000a900460ff16611629576040517f08c379a00000000000000000000000000000000000000000000000000000000081526004016116209061341d565b60405180910390fd5b61163585336002612274565b611674576040517f08c379a000000000000000000000000000000000000000000000000000000000815260040161166b90613c20565b60405180910390fd5b60006002600087815260200190815260200160002090508481600301908161169c91906136db565b508381600501819055504281600801819055506000600160046000898152602001908152602001600020805490506116d49190613c40565b905060006040518060a001604052808381526020018881526020013373ffffffffffffffffffffffffffffffffffffffff1681526020014281526020018681525090506004600089815260200190815260200160002081908060018154018082558091505060019003906000526020600020906005020160009091909190915060008201518160000155602082015181600101908161177391906136db565b5060408201518160020160006101000a81548173ffffffffffffffffffffffffffffffffffffffff021916908373ffffffffffffffffffffffffffffffffffffffff1602179055506060820151816003015560808201518160040190816117da91906136db565b505050877f20297096221fa45cf89de8bdcc534356afd5568db828d81dc1612863edcc115d8860405161180d9190613a6f565b60405180910390a2877f80566059c18cddbe50d8c97145f8b02ce67c1e17097f7610a5c7b4ec17a9ecc5836040516118459190612ce5565b60405180910390a25050505050505050565b60008360026000828152602001908152602001600020600b0160009054906101000a900460ff166118bd576040517f08c379a00000000000000000000000000000000000000000000000000000000081526004016118b49061341d565b60405180910390fd5b6118c8858585612274565b9150509392505050565b8160026000828152602001908152602001600020600b0160009054906101000a900460ff16611936576040517f08c379a000000000000000000000000000000000000000000000000000000000815260040161192d9061341d565b60405180910390fd5b823373ffffffffffffffffffffffffffffffffffffffff166002600083815260200190815260200160002060010160009054906101000a900473ffffffffffffffffffffffffffffffffffffffff1673ffffffffffffffffffffffffffffffffffffffff16146119db576040517f08c379a00000000000000000000000000000000000000000000000000000000081526004016119d2906134af565b60405180910390fd5b826002600086815260200190815260200160002060060160016101000a81548160ff021916908315150217905550426002600086815260200190815260200160002060080181905550837fb5b82f57238d237e37635b9a5f9237c1e6a3420cd9038047e09524ffd4edc04984604051611a549190612ea7565b60405180910390a250505050565b6060806060600080600080600060608060008b60026000828152602001908152602001600020600b0160009054906101000a900460ff16611ad8576040517f08c379a0000000000000000000000000000000000000000000000000000000008152600401611acf9061341d565b60405180910390fd5b611ae48d336000612274565b611b23576040517f08c379a0000000000000000000000000000000000000000000000000000000008152600401611b1a90613cc0565b60405180910390fd5b6000600260008f8152602001908152602001600020905080600201816003018260040183600501548460060160009054906101000a900460ff168560060160019054906101000a900460ff16866007015487600801548860090189600a018a60010160009054906101000a900473ffffffffffffffffffffffffffffffffffffffff168a8054611bb2906134fe565b80601f0160208091040260200160405190810160405280929190818152602001828054611bde906134fe565b8015611c2b5780601f10611c0057610100808354040283529160200191611c2b565b820191906000526020600020905b815481529060010190602001808311611c0e57829003601f168201915b50505050509a50898054611c3e906134fe565b80601f0160208091040260200160405190810160405280929190818152602001828054611c6a906134fe565b8015611cb75780601f10611c8c57610100808354040283529160200191611cb7565b820191906000526020600020905b815481529060010190602001808311611c9a57829003601f168201915b50505050509950888054611cca906134fe565b80601f0160208091040260200160405190810160405280929190818152602001828054611cf6906134fe565b8015611d435780601f10611d1857610100808354040283529160200191611d43565b820191906000526020600020905b815481529060010190602001808311611d2657829003601f168201915b5050505050985082805480602002602001604051908101604052809291908181526020016000905b82821015611e17578382906000526020600020018054611d8a906134fe565b80601f0160208091040260200160405190810160405280929190818152602001828054611db6906134fe565b8015611e035780601f10611dd857610100808354040283529160200191611e03565b820191906000526020600020905b815481529060010190602001808311611de657829003601f168201915b505050505081526020019060010190611d6b565b505050509250818054611e29906134fe565b80601f0160208091040260200160405190810160405280929190818152602001828054611e55906134fe565b8015611ea25780601f10611e7757610100808354040283529160200191611ea2565b820191906000526020600020905b815481529060010190602001808311611e8557829003601f168201915b505050505091509c509c509c509c509c509c509c509c509c509c509c50505091939597999b90929496989a50565b60608160026000828152602001908152602001600020600b0160009054906101000a900460ff16611f36576040517f08c379a0000000000000000000000000000000000000000000000000000000008152600401611f2d9061341d565b60405180910390fd5b611f4283336000612274565b611f81576040517f08c379a0000000000000000000000000000000000000000000000000000000008152600401611f7890613cc0565b60405180910390fd5b60046000848152602001908152602001600020805480602002602001604051908101604052809291908181526020016000905b8282101561217457838290600052602060002090600502016040518060a001604052908160008201548152602001600182018054611ff1906134fe565b80601f016020809104026020016040519081016040528092919081815260200182805461201d906134fe565b801561206a5780601f1061203f5761010080835404028352916020019161206a565b820191906000526020600020905b81548152906001019060200180831161204d57829003601f168201915b505050505081526020016002820160009054906101000a900473ffffffffffffffffffffffffffffffffffffffff1673ffffffffffffffffffffffffffffffffffffffff1673ffffffffffffffffffffffffffffffffffffffff168152602001600382015481526020016004820180546120e3906134fe565b80601f016020809104026020016040519081016040528092919081815260200182805461210f906134fe565b801561215c5780601f106121315761010080835404028352916020019161215c565b820191906000526020600020905b81548152906001019060200180831161213f57829003601f168201915b50505050508152505081526020019060010190611fb4565b50505050915050919050565b600060066000838152602001908152602001600020905060005b818054905081101561226d57838282815481106121ba576121b96137ad565b5b90600052602060002001540361226057600182805490506121db91906138a5565b8110156122325781600183805490506121f491906138a5565b81548110612205576122046137ad565b5b9060005260206000200154828281548110612223576122226137ad565b5b90600052602060002001819055505b81805480612243576122426138d9565b5b600190038181906000526020600020016000905590555050612270565b808060010191505061219a565b50505b5050565b6000806002600086815260200190815260200160002090508373ffffffffffffffffffffffffffffffffffffffff168160010160009054906101000a900473ffffffffffffffffffffffffffffffffffffffff1673ffffffffffffffffffffffffffffffffffffffff16036122ed57600191505061255e565b60005b60036000878152602001908152602001600020805490508110156123f8578473ffffffffffffffffffffffffffffffffffffffff1660036000888152602001908152602001600020828154811061234a576123496137ad565b5b9060005260206000200160000160009054906101000a900473ffffffffffffffffffffffffffffffffffffffff1673ffffffffffffffffffffffffffffffffffffffff16036123eb578360ff166003600088815260200190815260200160002082815481106123bc576123bb6137ad565b5b9060005260206000200160000160149054906101000a900460ff1660ff16106123ea5760019250505061255e565b5b80806001019150506122f0565b5060008360ff16036125585760028081111561241757612416612fae565b5b8160060160009054906101000a900460ff16600281111561243b5761243a612fae565b5b0361244a57600191505061255e565b6001600281111561245e5761245d612fae565b5b8160060160009054906101000a900460ff16600281111561248257612481612fae565b5b036125575760008054906101000a900473ffffffffffffffffffffffffffffffffffffffff1673ffffffffffffffffffffffffffffffffffffffff166328bea8248260010160009054906101000a900473ffffffffffffffffffffffffffffffffffffffff16866040518363ffffffff1660e01b8152600401612506929190613ce0565b602060405180830381865afa158015612523573d6000803e3d6000fd5b505050506040513d601f19601f82011682018060405250810190612547919061398e565b1561255657600191505061255e565b5b5b60009150505b9392505050565b8280548282559060005260206000209081019282156125ad579160200282015b828111156125ac57825182908161259c91906136db565b5091602001919060010190612585565b5b5090506125ba91906125be565b5090565b5b808211156125de57600081816125d591906125e2565b506001016125bf565b5090565b5080546125ee906134fe565b6000825580601f10612600575061261f565b601f01602090049060005260206000209081019061261e9190612622565b5b50565b5b8082111561263b576000816000905550600101612623565b5090565b6000604051905090565b600080fd5b600080fd5b600080fd5b600080fd5b6000601f19601f8301169050919050565b7f4e487b7100000000000000000000000000000000000000000000000000000000600052604160045260246000fd5b6126a68261265d565b810181811067ffffffffffffffff821117156126c5576126c461266e565b5b80604052505050565b60006126d861263f565b90506126e4828261269d565b919050565b600067ffffffffffffffff8211156127045761270361266e565b5b61270d8261265d565b9050602081019050919050565b82818337600083830152505050565b600061273c612737846126e9565b6126ce565b90508281526020810184848401111561275857612757612658565b5b61276384828561271a565b509392505050565b600082601f8301126127805761277f612653565b5b8135612790848260208601612729565b91505092915050565b6000602082840312156127af576127ae612649565b5b600082013567ffffffffffffffff8111156127cd576127cc61264e565b5b6127d98482850161276b565b91505092915050565b600081519050919050565b600082825260208201905092915050565b6000819050602082019050919050565b6000819050919050565b6128218161280e565b82525050565b60006128338383612818565b60208301905092915050565b6000602082019050919050565b6000612857826127e2565b61286181856127ed565b935061286c836127fe565b8060005b8381101561289d5781516128848882612827565b975061288f8361283f565b925050600181019050612870565b5085935050505092915050565b600060208201905081810360008301526128c4818461284c565b905092915050565b6128d58161280e565b81146128e057600080fd5b50565b6000813590506128f2816128cc565b92915050565b600067ffffffffffffffff8211156129135761291261266e565b5b602082029050602081019050919050565b600080fd5b600061293c612937846128f8565b6126ce565b9050808382526020820190506020840283018581111561295f5761295e612924565b5b835b818110156129a657803567ffffffffffffffff81111561298457612983612653565b5b808601612991898261276b565b85526020850194505050602081019050612961565b5050509392505050565b600082601f8301126129c5576129c4612653565b5b81356129d5848260208601612929565b91505092915050565b600080600080608085870312156129f8576129f7612649565b5b6000612a06878288016128e3565b945050602085013567ffffffffffffffff811115612a2757612a2661264e565b5b612a338782880161276b565b935050604085013567ffffffffffffffff811115612a5457612a5361264e565b5b612a60878288016129b0565b925050606085013567ffffffffffffffff811115612a8157612a8061264e565b5b612a8d8782880161276b565b91505092959194509250565b600073ffffffffffffffffffffffffffffffffffffffff82169050919050565b6000612ac482612a99565b9050919050565b612ad481612ab9565b8114612adf57600080fd5b50565b600081359050612af181612acb565b92915050565b60008060408385031215612b0e57612b0d612649565b5b6000612b1c858286016128e3565b9250506020612b2d85828601612ae2565b9150509250929050565b60038110612b4457600080fd5b50565b600081359050612b5681612b37565b92915050565b60008115159050919050565b612b7181612b5c565b8114612b7c57600080fd5b50565b600081359050612b8e81612b68565b92915050565b600080600080600080600080610100898b031215612bb557612bb4612649565b5b600089013567ffffffffffffffff811115612bd357612bd261264e565b5b612bdf8b828c0161276b565b985050602089013567ffffffffffffffff811115612c0057612bff61264e565b5b612c0c8b828c0161276b565b975050604089013567ffffffffffffffff811115612c2d57612c2c61264e565b5b612c398b828c0161276b565b9650506060612c4a8b828c016128e3565b9550506080612c5b8b828c01612b47565b94505060a0612c6c8b828c01612b7f565b93505060c089013567ffffffffffffffff811115612c8d57612c8c61264e565b5b612c998b828c016129b0565b92505060e089013567ffffffffffffffff811115612cba57612cb961264e565b5b612cc68b828c0161276b565b9150509295985092959890939650565b612cdf8161280e565b82525050565b6000602082019050612cfa6000830184612cd6565b92915050565b60008060408385031215612d1757612d16612649565b5b6000612d25858286016128e3565b9250506020612d3685828601612b47565b9150509250929050565b600060ff82169050919050565b612d5681612d40565b8114612d6157600080fd5b50565b600081359050612d7381612d4d565b92915050565b600080600060608486031215612d9257612d91612649565b5b6000612da0868287016128e3565b9350506020612db186828701612ae2565b9250506040612dc286828701612d64565b9150509250925092565b600060208284031215612de257612de1612649565b5b6000612df084828501612ae2565b91505092915050565b60008060008060808587031215612e1357612e12612649565b5b6000612e21878288016128e3565b945050602085013567ffffffffffffffff811115612e4257612e4161264e565b5b612e4e8782880161276b565b9350506040612e5f878288016128e3565b925050606085013567ffffffffffffffff811115612e8057612e7f61264e565b5b612e8c8782880161276b565b91505092959194509250565b612ea181612b5c565b82525050565b6000602082019050612ebc6000830184612e98565b92915050565b60008060408385031215612ed957612ed8612649565b5b6000612ee7858286016128e3565b9250506020612ef885828601612b7f565b9150509250929050565b600060208284031215612f1857612f17612649565b5b6000612f26848285016128e3565b91505092915050565b600081519050919050565b600082825260208201905092915050565b60005b83811015612f69578082015181840152602081019050612f4e565b60008484015250505050565b6000612f8082612f2f565b612f8a8185612f3a565b9350612f9a818560208601612f4b565b612fa38161265d565b840191505092915050565b7f4e487b7100000000000000000000000000000000000000000000000000000000600052602160045260246000fd5b60038110612fee57612fed612fae565b5b50565b6000819050612fff82612fdd565b919050565b600061300f82612ff1565b9050919050565b61301f81613004565b82525050565b600081519050919050565b600082825260208201905092915050565b6000819050602082019050919050565b600082825260208201905092915050565b600061306d82612f2f565b6130778185613051565b9350613087818560208601612f4b565b6130908161265d565b840191505092915050565b60006130a78383613062565b905092915050565b6000602082019050919050565b60006130c782613025565b6130d18185613030565b9350836020820285016130e385613041565b8060005b8581101561311f5784840389528151613100858261309b565b945061310b836130af565b925060208a019950506001810190506130e7565b50829750879550505050505092915050565b61313a81612ab9565b82525050565b600061016082019050818103600083015261315b818e612f75565b9050818103602083015261316f818d612f75565b90508181036040830152613183818c612f75565b9050613192606083018b612cd6565b61319f608083018a613016565b6131ac60a0830189612e98565b6131b960c0830188612cd6565b6131c660e0830187612cd6565b8181036101008301526131d981866130bc565b90508181036101208301526131ee8185612f75565b90506131fe610140830184613131565b9c9b505050505050505050505050565b600081519050919050565b600082825260208201905092915050565b6000819050602082019050919050565b61324381612ab9565b82525050565b600060a0830160008301516132616000860182612818565b50602083015184820360208601526132798282613062565b915050604083015161328e604086018261323a565b5060608301516132a16060860182612818565b50608083015184820360808601526132b98282613062565b9150508091505092915050565b60006132d28383613249565b905092915050565b6000602082019050919050565b60006132f28261320e565b6132fc8185613219565b93508360208202850161330e8561322a565b8060005b8581101561334a578484038952815161332b85826132c6565b9450613336836132da565b925060208a01995050600181019050613312565b50829750879550505050505092915050565b6000602082019050818103600083015261337681846132e7565b905092915050565b600081905092915050565b600061339482612f2f565b61339e818561337e565b93506133ae818560208601612f4b565b80840191505092915050565b60006133c68284613389565b915081905092915050565b7f446f63756d656e7420646f6573206e6f74206578697374000000000000000000600082015250565b6000613407601783612f3a565b9150613412826133d1565b602082019050919050565b60006020820190508181036000830152613436816133fa565b9050919050565b7f4f6e6c7920646f63756d656e74206f776e65722063616e20706572666f726d2060008201527f7468697320616374696f6e000000000000000000000000000000000000000000602082015250565b6000613499602b83612f3a565b91506134a48261343d565b604082019050919050565b600060208201905081810360008301526134c88161348c565b9050919050565b7f4e487b7100000000000000000000000000000000000000000000000000000000600052602260045260246000fd5b6000600282049050600182168061351657607f821691505b602082108103613529576135286134cf565b5b50919050565b60008190508160005260206000209050919050565b60006020601f8301049050919050565b600082821b905092915050565b6000600883026135917fffffffffffffffffffffffffffffffffffffffffffffffffffffffffffffffff82613554565b61359b8683613554565b95508019841693508086168417925050509392505050565b6000819050919050565b60006135d86135d36135ce8461280e565b6135b3565b61280e565b9050919050565b6000819050919050565b6135f2836135bd565b6136066135fe826135df565b848454613561565b825550505050565b600090565b61361b61360e565b6136268184846135e9565b505050565b5b8181101561364a5761363f600082613613565b60018101905061362c565b5050565b601f82111561368f576136608161352f565b61366984613544565b81016020851015613678578190505b61368c61368485613544565b83018261362b565b50505b505050565b600082821c905092915050565b60006136b260001984600802613694565b1980831691505092915050565b60006136cb83836136a1565b9150826002028217905092915050565b6136e482612f2f565b67ffffffffffffffff8111156136fd576136fc61266e565b5b61370782546134fe565b61371282828561364e565b600060209050601f8311600181146137455760008415613733578287015190505b61373d85826136bf565b8655506137a5565b601f1984166137538661352f565b60005b8281101561377b57848901518255600182019150602085019450602081019050613756565b868310156137985784890151613794601f8916826136a1565b8355505b6001600288020188555050505b505050505050565b7f4e487b7100000000000000000000000000000000000000000000000000000000600052603260045260246000fd5b600081546137e9816134fe565b6137f3818661337e565b9450600182166000811461380e576001811461382357613856565b60ff1983168652811515820286019350613856565b61382c8561352f565b60005b8381101561384e5781548189015260018201915060208101905061382f565b838801955050505b50505092915050565b600061386b82846137dc565b915081905092915050565b7f4e487b7100000000000000000000000000000000000000000000000000000000600052601160045260246000fd5b60006138b08261280e565b91506138bb8361280e565b92508282039050818111156138d3576138d2613876565b5b92915050565b7f4e487b7100000000000000000000000000000000000000000000000000000000600052603160045260246000fd5b6000819050919050565b600061392d61392861392384613908565b6135b3565b612d40565b9050919050565b61393d81613912565b82525050565b60006020820190506139586000830184613934565b92915050565b60006020820190506139736000830184613131565b92915050565b60008151905061398881612b68565b92915050565b6000602082840312156139a4576139a3612649565b5b60006139b284828501613979565b91505092915050565b7f55736572206e6f74207265676973746572656400000000000000000000000000600082015250565b60006139f1601383612f3a565b91506139fc826139bb565b602082019050919050565b60006020820190508181036000830152613a20816139e4565b9050919050565b6000613a328261280e565b91507fffffffffffffffffffffffffffffffffffffffffffffffffffffffffffffffff8203613a6457613a63613876565b5b600182019050919050565b60006020820190508181036000830152613a898184612f75565b905092915050565b6000602082019050613aa66000830184613016565b92915050565b7f4f776e657220616c7265616479206861732066756c6c207065726d697373696f60008201527f6e73000000000000000000000000000000000000000000000000000000000000602082015250565b6000613b08602283612f3a565b9150613b1382613aac565b604082019050919050565b60006020820190508181036000830152613b3781613afb565b9050919050565b7f496e76616c6964207065726d697373696f6e2076616c75650000000000000000600082015250565b6000613b74601883612f3a565b9150613b7f82613b3e565b602082019050919050565b60006020820190508181036000830152613ba381613b67565b9050919050565b613bb381612d40565b82525050565b6000602082019050613bce6000830184613baa565b92915050565b7f45646974207065726d697373696f6e2072657175697265640000000000000000600082015250565b6000613c0a601883612f3a565b9150613c1582613bd4565b602082019050919050565b60006020820190508181036000830152613c3981613bfd565b9050919050565b6000613c4b8261280e565b9150613c568361280e565b9250828201905080821115613c6e57613c6d613876565b5b92915050565b7f52656164207065726d697373696f6e2072657175697265640000000000000000600082015250565b6000613caa601883612f3a565b9150613cb582613c74565b602082019050919050565b60006020820190508181036000830152613cd981613c9d565b9050919050565b6000604082019050613cf56000830185613131565b613d026020830184613131565b939250505056fea264697066735822122027a691cff2fd03f670b3eb750dc5a1f1d4d08b5ff282091cc03d9245d54ea55d64736f6c63430008180033",
  "linkReferences": {},
  "deployedLinkReferences": {}
}