{
  "_format": "hh-sol-artifact-1",
  "contractName": "UserRegistry",
  "sourceName": "contracts/UserRegistry.sol",
  "abi": [
    {
      "inputs": [],
      "stateMutability": "nonpayable",
      "type": "constructor"
    },
    {
      "inputs": [
        {
          "internalType": "address",
          "name": "owner",
          "type": "address"
        }
      ],
      "name": "OwnableInvalidOwner",
      "type": "error"
    },
    {
      "inputs": [
        {
          "internalType": "address",
          "name": "account",
          "type": "address"
        }
      ],
      "name": "OwnableUnauthorizedAccount",
      "type": "error"
    },
    {
      "anonymous": false,
      "inputs": [
        {
          "indexed": true,
          "internalType": "address",
          "name": "userAddress",
          "type": "address"
        },
        {
          "indexed": false,
          "internalType": "enum UserRegistry.KYCStatus",
          "name": "newStatus",
          "type": "uint8"
        }
      ],
      "name": "KYCStatusChanged",
      "type": "event"
    },
    {
      "anonymous": false,
      "inputs": [
        {
          "indexed": true,
          "internalType": "address",
          "name": "previousOwner",
          "type": "address"
        },
        {
          "indexed": true,
          "internalType": "address",
          "name": "newOwner",
          "type": "address"
        }
      ],
      "name": "OwnershipTransferred",
      "type": "event"
    },
    {
      "anonymous": false,
      "inputs": [
        {
          "indexed": true,
          "internalType": "address",
          "name": "userAddress",
          "type": "address"
        }
      ],
      "name": "ProfileUpdated",
      "type": "event"
    },
    {
      "anonymous": false,
      "inputs": [
        {
          "indexed": true,
          "internalType": "address",
          "name": "userAddress",
          "type": "address"
        },
        {
          "indexed": false,
          "internalType": "uint256",
          "name": "newScore",
          "type": "uint256"
        }
      ],
      "name": "TrustScoreUpdated",
      "type": "event"
    },
    {
      "anonymous": false,
      "inputs": [
        {
          "indexed": true,
          "internalType": "address",
          "name": "userAddress",
          "type": "address"
        },
        {
          "indexed": true,
          "internalType": "address",
          "name": "trustedUser",
          "type": "address"
        }
      ],
      "name": "TrustedUserAdded",
      "type": "event"
    },
    {
      "anonymous": false,
      "inputs": [
        {
          "indexed": true,
          "internalType": "address",
          "name": "userAddress",
          "type": "address"
        },
        {
          "indexed": true,
          "internalType": "address",
          "name": "untrustedUser",
          "type": "address"
        }
      ],
      "name": "TrustedUserRemoved",
      "type": "event"
    },
    {
      "anonymous": false,
      "inputs": [
        {
          "indexed": true,
          "internalType": "address",
          "name": "userAddress",
          "type": "address"
        },
        {
          "indexed": false,
          "internalType": "string",
          "name": "username",
          "type": "string"
        }
      ],
      "name": "UserRegistered",
      "type": "event"
    },
    {
      "inputs": [
        {
          "internalType": "address",
          "name": "trustedUser",
          "type": "address"
        }
      ],
      "name": "addTrustedUser",
      "outputs": [],
      "stateMutability": "nonpayable",
      "type": "function"
    },
    {
      "inputs": [],
      "name": "getAllUsers",
      "outputs": [
        {
          "internalType": "address[]",
          "name": "",
          "type": "address[]"
        }
      ],
      "stateMutability": "view",
      "type": "function"
    },
    {
      "inputs": [
        {
          "internalType": "address",
          "name": "userAddress",
          "type": "address"
        }
      ],
      "name": "getKYCStatus",
      "outputs": [
        {
          "internalType": "enum UserRegistry.KYCStatus",
          "name": "",
          "type": "uint8"
        }
      ],
      "stateMutability": "view",
      "type": "function"
    },
    {
      "inputs": [
        {
          "internalType": "address",
          "name": "userAddress",
          "type": "address"
        }
      ],
      "name": "getTrustedUsers",
      "outputs": [
        {
          "internalType": "address[]",
          "name": "",
          "type": "address[]"
        }
      ],
      "stateMutability": "view",
      "type": "function"
    },
    {
      "inputs": [
        {
          "internalType": "address",
          "name": "userAddress",
          "type": "address"
        }
      ],
      "name": "getUserProfile",
      "outputs": [
        {
          "internalType": "string",
          "name": "username",
          "type": "string"
        },
        {
          "internalType": "string",
          "name": "profileIpfsHash",
          "type": "string"
        },
        {
          "internalType": "string",
          "name": "bio",
          "type": "string"
        },
        {
          "internalType": "enum UserRegistry.KYCStatus",
          "name": "kycStatus",
          "type": "uint8"
        },
        {
          "internalType": "uint256",
          "name": "trustScore",
          "type": "uint256"
        },
        {
          "internalType": "uint256",
          "name": "createdAt",
          "type": "uint256"
        },
        {
          "internalType": "uint256",
          "name": "lastUpdated",
          "type": "uint256"
        },
        {
          "internalType": "uint256",
          "name": "trustedUsersCount",
          "type": "uint256"
        }
      ],
      "stateMutability": "view",
      "type": "function"
    },
    {
      "inputs": [
        {
          "internalType": "address",
          "name": "userAddress",
          "type": "address"
        },
        {
          "internalType": "address",
          "name": "trustedUser",
          "type": "address"
        }
      ],
      "name": "isTrustedUser",
      "outputs": [
        {
          "internalType": "bool",
          "name": "",
          "type": "bool"
        }
      ],
      "stateMutability": "view",
      "type": "function"
    },
    {
      "inputs": [],
      "name": "owner",
      "outputs": [
        {
          "internalType": "address",
          "name": "",
          "type": "address"
        }
      ],
      "stateMutability": "view",
      "type": "function"
    },
    {
      "inputs": [
        {
          "internalType": "address",
          "name": "userAddress",
          "type": "address"
        },
        {
          "internalType": "bool",
          "name": "approved",
          "type": "bool"
        }
      ],
      "name": "processKYC",
      "outputs": [],
      "stateMutability": "nonpayable",
      "type": "function"
    },
    {
      "inputs": [
        {
          "internalType": "string",
          "name": "username",
          "type": "string"
        },
        {
          "internalType": "string",
          "name": "profileIpfsHash",
          "type": "string"
        },
        {
          "internalType": "string",
          "name": "bio",
          "type": "string"
        }
      ],
      "name": "registerUser",
      "outputs": [],
      "stateMutability": "nonpayable",
      "type": "function"
    },
    {
      "inputs": [
        {
          "internalType": "address",
          "name": "trustedUser",
          "type": "address"
        }
      ],
      "name": "removeTrustedUser",
      "outputs": [],
      "stateMutability": "nonpayable",
      "type": "function"
    },
    {
      "inputs": [],
      "name": "renounceOwnership",
      "outputs": [],
      "stateMutability": "nonpayable",
      "type": "function"
    },
    {
      "inputs": [],
      "name": "submitKYC",
      "outputs": [],
      "stateMutability": "nonpayable",
      "type": "function"
    },
    {
      "inputs": [
        {
          "internalType": "address",
          "name": "newOwner",
          "type": "address"
        }
      ],
      "name": "transferOwnership",
      "outputs": [],
      "stateMutability": "nonpayable",
      "type": "function"
    },
    {
      "inputs": [
        {
          "internalType": "string",
          "name": "username",
          "type": "string"
        },
        {
          "internalType": "string",
          "name": "profileIpfsHash",
          "type": "string"
        },
        {
          "internalType": "string",
          "name": "bio",
          "type": "string"
        }
      ],
      "name": "updateProfile",
      "outputs": [],
      "stateMutability": "nonpayable",
      "type": "function"
    },
    {
      "inputs": [
        {
          "internalType": "address",
          "name": "userAddress",
          "type": "address"
        }
      ],
      "name": "userExists",
      "outputs": [
        {
          "internalType": "bool",
          "name": "",
          "type": "bool"
        }
      ],
      "stateMutability": "view",
      "type": "function"
    }
  ],
  "bytecode": "0x60806040523480156200001157600080fd5b5033600073ffffffffffffffffffffffffffffffffffffffff168173ffffffffffffffffffffffffffffffffffffffff1603620000885760006040517f1e4fbdf70000000000000000000000000000000000000000000000000000000081526004016200007f9190620001a9565b60405180910390fd5b6200009981620000a060201b60201c565b50620001c6565b60008060009054906101000a900473ffffffffffffffffffffffffffffffffffffffff169050816000806101000a81548173ffffffffffffffffffffffffffffffffffffffff021916908373ffffffffffffffffffffffffffffffffffffffff1602179055508173ffffffffffffffffffffffffffffffffffffffff168173ffffffffffffffffffffffffffffffffffffffff167f8be0079c531659141344cd1fd0a4f28419497f9722a3daafe3b4186f6b6457e060405160405180910390a35050565b600073ffffffffffffffffffffffffffffffffffffffff82169050919050565b6000620001918262000164565b9050919050565b620001a38162000184565b82525050565b6000602082019050620001c0600083018462000198565b92915050565b61309b80620001d66000396000f3fe608060405234801561001057600080fd5b50600436106100f45760003560e01c806386e1dee111610097578063bea620dd11610066578063bea620dd14610276578063d637dcfa14610292578063e2842d79146102ae578063f2fde38b146102cc576100f4565b806386e1dee1146101e95780638da5cb5b14610205578063987ee15614610223578063af866d871461025a576100f4565b80630e666e49116100d35780630e666e49146101635780631105a5eb1461019357806328bea824146101af578063715018a6146101df576100f4565b80620c8df0146100f9578063085d49be146101295780630c5e9e6214610133575b600080fd5b610113600480360381019061010e91906120b3565b6102e8565b6040516101209190612157565b60405180910390f35b6101316103d0565b005b61014d600480360381019061014891906120b3565b6105d0565b60405161015a9190612230565b60405180910390f35b61017d600480360381019061017891906120b3565b61072f565b60405161018a919061226d565b60405180910390f35b6101ad60048036038101906101a891906123ce565b610788565b005b6101c960048036038101906101c49190612475565b610b11565b6040516101d6919061226d565b60405180910390f35b6101e7610cc6565b005b61020360048036038101906101fe91906124e1565b610cda565b005b61020d610f8d565b60405161021a9190612530565b60405180910390f35b61023d600480360381019061023891906120b3565b610fb6565b6040516102519897969594939291906125e3565b60405180910390f35b610274600480360381019061026f91906120b3565b61128a565b005b610290600480360381019061028b91906120b3565b6115a3565b005b6102ac60048036038101906102a791906123ce565b611879565b005b6102b6611d33565b6040516102c39190612230565b60405180910390f35b6102e660048036038101906102e191906120b3565b611dc1565b005b6000600160008373ffffffffffffffffffffffffffffffffffffffff1673ffffffffffffffffffffffffffffffffffffffff16815260200190815260200160002060030160009054906101000a900460ff16610379576040517f08c379a0000000000000000000000000000000000000000000000000000000008152600401610370906126c2565b60405180910390fd5b600160008373ffffffffffffffffffffffffffffffffffffffff1673ffffffffffffffffffffffffffffffffffffffff16815260200190815260200160002060030160019054906101000a900460ff169050919050565b600160003373ffffffffffffffffffffffffffffffffffffffff1673ffffffffffffffffffffffffffffffffffffffff16815260200190815260200160002060030160009054906101000a900460ff1661045f576040517f08c379a0000000000000000000000000000000000000000000000000000000008152600401610456906126c2565b60405180910390fd5b60006003811115610473576104726120e0565b5b600160003373ffffffffffffffffffffffffffffffffffffffff1673ffffffffffffffffffffffffffffffffffffffff16815260200190815260200160002060030160019054906101000a900460ff1660038111156104d5576104d46120e0565b5b14610515576040517f08c379a000000000000000000000000000000000000000000000000000000000815260040161050c9061272e565b60405180910390fd5b60018060003373ffffffffffffffffffffffffffffffffffffffff1673ffffffffffffffffffffffffffffffffffffffff16815260200190815260200160002060030160016101000a81548160ff0219169083600381111561057a576105796120e0565b5b02179055503373ffffffffffffffffffffffffffffffffffffffff167f92519baedd822d457d5f6e76271f99be494406bb001945bba21430d8c294bab860016040516105c69190612157565b60405180910390a2565b6060600160008373ffffffffffffffffffffffffffffffffffffffff1673ffffffffffffffffffffffffffffffffffffffff16815260200190815260200160002060030160009054906101000a900460ff16610661576040517f08c379a0000000000000000000000000000000000000000000000000000000008152600401610658906126c2565b60405180910390fd5b600160008373ffffffffffffffffffffffffffffffffffffffff1673ffffffffffffffffffffffffffffffffffffffff16815260200190815260200160002060070180548060200260200160405190810160405280929190818152602001828054801561072357602002820191906000526020600020905b8160009054906101000a900473ffffffffffffffffffffffffffffffffffffffff1673ffffffffffffffffffffffffffffffffffffffff16815260200190600101908083116106d9575b50505050509050919050565b6000600160008373ffffffffffffffffffffffffffffffffffffffff1673ffffffffffffffffffffffffffffffffffffffff16815260200190815260200160002060030160009054906101000a900460ff169050919050565b600160003373ffffffffffffffffffffffffffffffffffffffff1673ffffffffffffffffffffffffffffffffffffffff16815260200190815260200160002060030160009054906101000a900460ff16610817576040517f08c379a000000000000000000000000000000000000000000000000000000000815260040161080e906126c2565b60405180910390fd5b82600073ffffffffffffffffffffffffffffffffffffffff16600282604051610840919061278a565b908152602001604051809103902060009054906101000a900473ffffffffffffffffffffffffffffffffffffffff1673ffffffffffffffffffffffffffffffffffffffff1614806108fa57503373ffffffffffffffffffffffffffffffffffffffff166002826040516108b3919061278a565b908152602001604051809103902060009054906101000a900473ffffffffffffffffffffffffffffffffffffffff1673ffffffffffffffffffffffffffffffffffffffff16145b610939576040517f08c379a0000000000000000000000000000000000000000000000000000000008152600401610930906127ed565b60405180910390fd5b600084511161097d576040517f08c379a000000000000000000000000000000000000000000000000000000000815260040161097490612859565b60405180910390fd5b6000600160003373ffffffffffffffffffffffffffffffffffffffff1673ffffffffffffffffffffffffffffffffffffffff16815260200190815260200160002090508480519060200120816000016040516109d9919061297c565b604051809103902014610a88576002816000016040516109f99190612a2b565b908152602001604051809103902060006101000a81549073ffffffffffffffffffffffffffffffffffffffff021916905533600286604051610a3b919061278a565b908152602001604051809103902060006101000a81548173ffffffffffffffffffffffffffffffffffffffff021916908373ffffffffffffffffffffffffffffffffffffffff1602179055505b84816000019081610a999190612bd9565b5083816001019081610aab9190612bd9565b5082816002019081610abd9190612bd9565b504281600601819055503373ffffffffffffffffffffffffffffffffffffffff167fbe4ec58a792f909e102ee3d745d0c3b34a4d437a54d903c4db098d31c556422f60405160405180910390a25050505050565b6000600160008473ffffffffffffffffffffffffffffffffffffffff1673ffffffffffffffffffffffffffffffffffffffff16815260200190815260200160002060030160009054906101000a900460ff16610ba2576040517f08c379a0000000000000000000000000000000000000000000000000000000008152600401610b99906126c2565b60405180910390fd5b60005b600160008573ffffffffffffffffffffffffffffffffffffffff1673ffffffffffffffffffffffffffffffffffffffff16815260200190815260200160002060070180549050811015610cba578273ffffffffffffffffffffffffffffffffffffffff16600160008673ffffffffffffffffffffffffffffffffffffffff1673ffffffffffffffffffffffffffffffffffffffff1681526020019081526020016000206007018281548110610c5d57610c5c612cab565b5b9060005260206000200160009054906101000a900473ffffffffffffffffffffffffffffffffffffffff1673ffffffffffffffffffffffffffffffffffffffff1603610cad576001915050610cc0565b8080600101915050610ba5565b50600090505b92915050565b610cce611e47565b610cd86000611ece565b565b610ce2611e47565b600160008373ffffffffffffffffffffffffffffffffffffffff1673ffffffffffffffffffffffffffffffffffffffff16815260200190815260200160002060030160009054906101000a900460ff16610d71576040517f08c379a0000000000000000000000000000000000000000000000000000000008152600401610d68906126c2565b60405180910390fd5b60016003811115610d8557610d846120e0565b5b600160008473ffffffffffffffffffffffffffffffffffffffff1673ffffffffffffffffffffffffffffffffffffffff16815260200190815260200160002060030160019054906101000a900460ff166003811115610de757610de66120e0565b5b14610e27576040517f08c379a0000000000000000000000000000000000000000000000000000000008152600401610e1e90612d26565b60405180910390fd5b6000600160008473ffffffffffffffffffffffffffffffffffffffff1673ffffffffffffffffffffffffffffffffffffffff168152602001908152602001600020905081610e76576003610e79565b60025b8160030160016101000a81548160ff02191690836003811115610e9f57610e9e6120e0565b5b0217905550818015610eb55750605a8160040154105b15610f2957600a816004016000828254610ecf9190612d75565b925050819055508273ffffffffffffffffffffffffffffffffffffffff167f16bf5e9c27e8fb3837dca08521258eaf9f8e21bb809d3dd7a1a4a00093c99a448260040154604051610f209190612da9565b60405180910390a25b8273ffffffffffffffffffffffffffffffffffffffff167f92519baedd822d457d5f6e76271f99be494406bb001945bba21430d8c294bab88260030160019054906101000a900460ff16604051610f809190612157565b60405180910390a2505050565b60008060009054906101000a900473ffffffffffffffffffffffffffffffffffffffff16905090565b60608060606000806000806000600160008a73ffffffffffffffffffffffffffffffffffffffff1673ffffffffffffffffffffffffffffffffffffffff16815260200190815260200160002060030160009054906101000a900460ff16611052576040517f08c379a0000000000000000000000000000000000000000000000000000000008152600401611049906126c2565b60405180910390fd5b6000600160008b73ffffffffffffffffffffffffffffffffffffffff1673ffffffffffffffffffffffffffffffffffffffff16815260200190815260200160002090508060000181600101826002018360030160019054906101000a900460ff1684600401548560050154866006015487600701805490508780546110d6906128a8565b80601f0160208091040260200160405190810160405280929190818152602001828054611102906128a8565b801561114f5780601f106111245761010080835404028352916020019161114f565b820191906000526020600020905b81548152906001019060200180831161113257829003601f168201915b50505050509750868054611162906128a8565b80601f016020809104026020016040519081016040528092919081815260200182805461118e906128a8565b80156111db5780601f106111b0576101008083540402835291602001916111db565b820191906000526020600020905b8154815290600101906020018083116111be57829003601f168201915b505050505096508580546111ee906128a8565b80601f016020809104026020016040519081016040528092919081815260200182805461121a906128a8565b80156112675780601f1061123c57610100808354040283529160200191611267565b820191906000526020600020905b81548152906001019060200180831161124a57829003601f168201915b505050505095509850985098509850985098509850985050919395975091939597565b600160003373ffffffffffffffffffffffffffffffffffffffff1673ffffffffffffffffffffffffffffffffffffffff16815260200190815260200160002060030160009054906101000a900460ff16611319576040517f08c379a0000000000000000000000000000000000000000000000000000000008152600401611310906126c2565b60405180910390fd5b6113233382610b11565b611362576040517f08c379a000000000000000000000000000000000000000000000000000000000815260040161135990612e10565b60405180910390fd5b6000600160003373ffffffffffffffffffffffffffffffffffffffff1673ffffffffffffffffffffffffffffffffffffffff168152602001908152602001600020600701905060005b818054905081101561159d578273ffffffffffffffffffffffffffffffffffffffff168282815481106113e1576113e0612cab565b5b9060005260206000200160009054906101000a900473ffffffffffffffffffffffffffffffffffffffff1673ffffffffffffffffffffffffffffffffffffffff160361159057600182805490506114389190612e30565b8110156114e95781600183805490506114519190612e30565b8154811061146257611461612cab565b5b9060005260206000200160009054906101000a900473ffffffffffffffffffffffffffffffffffffffff168282815481106114a05761149f612cab565b5b9060005260206000200160006101000a81548173ffffffffffffffffffffffffffffffffffffffff021916908373ffffffffffffffffffffffffffffffffffffffff1602179055505b818054806114fa576114f9612e64565b5b6001900381819060005260206000200160006101000a81549073ffffffffffffffffffffffffffffffffffffffff021916905590558273ffffffffffffffffffffffffffffffffffffffff163373ffffffffffffffffffffffffffffffffffffffff167f4ab0bf2190f1c4cc446d9df7ed8ae5bbaca48fe52029d634e8a0bac051295a7860405160405180910390a350506115a0565b80806001019150506113ab565b50505b50565b600160003373ffffffffffffffffffffffffffffffffffffffff1673ffffffffffffffffffffffffffffffffffffffff16815260200190815260200160002060030160009054906101000a900460ff16611632576040517f08c379a0000000000000000000000000000000000000000000000000000000008152600401611629906126c2565b60405180910390fd5b600160008273ffffffffffffffffffffffffffffffffffffffff1673ffffffffffffffffffffffffffffffffffffffff16815260200190815260200160002060030160009054906101000a900460ff166116c1576040517f08c379a00000000000000000000000000000000000000000000000000000000081526004016116b890612edf565b60405180910390fd5b8073ffffffffffffffffffffffffffffffffffffffff163373ffffffffffffffffffffffffffffffffffffffff160361172f576040517f08c379a000000000000000000000000000000000000000000000000000000000815260040161172690612f4b565b60405180910390fd5b6117393382610b11565b15611779576040517f08c379a000000000000000000000000000000000000000000000000000000000815260040161177090612fb7565b60405180910390fd5b600160003373ffffffffffffffffffffffffffffffffffffffff1673ffffffffffffffffffffffffffffffffffffffff168152602001908152602001600020600701819080600181540180825580915050600190039060005260206000200160009091909190916101000a81548173ffffffffffffffffffffffffffffffffffffffff021916908373ffffffffffffffffffffffffffffffffffffffff1602179055508073ffffffffffffffffffffffffffffffffffffffff163373ffffffffffffffffffffffffffffffffffffffff167faff207159a3c5ef4fd8ef01e4a1390701d8f1ef16bd27e3adf376f0054ac44de60405160405180910390a350565b82600073ffffffffffffffffffffffffffffffffffffffff166002826040516118a2919061278a565b908152602001604051809103902060009054906101000a900473ffffffffffffffffffffffffffffffffffffffff1673ffffffffffffffffffffffffffffffffffffffff16148061195c57503373ffffffffffffffffffffffffffffffffffffffff16600282604051611915919061278a565b908152602001604051809103902060009054906101000a900473ffffffffffffffffffffffffffffffffffffffff1673ffffffffffffffffffffffffffffffffffffffff16145b61199b576040517f08c379a0000000000000000000000000000000000000000000000000000000008152600401611992906127ed565b60405180910390fd5b600160003373ffffffffffffffffffffffffffffffffffffffff1673ffffffffffffffffffffffffffffffffffffffff16815260200190815260200160002060030160009054906101000a900460ff1615611a2b576040517f08c379a0000000000000000000000000000000000000000000000000000000008152600401611a2290613023565b60405180910390fd5b6000845111611a6f576040517f08c379a0000000000000000000000000000000000000000000000000000000008152600401611a6690612859565b60405180910390fd5b60405180610120016040528085815260200184815260200183815260200160011515815260200160006003811115611aaa57611aa96120e0565b5b815260200160328152602001428152602001428152602001600067ffffffffffffffff811115611add57611adc6122a3565b5b604051908082528060200260200182016040528015611b0b5781602001602082028036833780820191505090505b50815250600160003373ffffffffffffffffffffffffffffffffffffffff1673ffffffffffffffffffffffffffffffffffffffff1681526020019081526020016000206000820151816000019081611b639190612bd9565b506020820151816001019081611b799190612bd9565b506040820151816002019081611b8f9190612bd9565b5060608201518160030160006101000a81548160ff02191690831515021790555060808201518160030160016101000a81548160ff02191690836003811115611bdb57611bda6120e0565b5b021790555060a0820151816004015560c0820151816005015560e08201518160060155610100820151816007019080519060200190611c1b929190611f9a565b5090505033600285604051611c30919061278a565b908152602001604051809103902060006101000a81548173ffffffffffffffffffffffffffffffffffffffff021916908373ffffffffffffffffffffffffffffffffffffffff1602179055506003339080600181540180825580915050600190039060005260206000200160009091909190916101000a81548173ffffffffffffffffffffffffffffffffffffffff021916908373ffffffffffffffffffffffffffffffffffffffff1602179055503373ffffffffffffffffffffffffffffffffffffffff167f48cac28ad4dc618e15f4c2dd5e97751182f166de97b25618318b2112aa951a2f85604051611d259190613043565b60405180910390a250505050565b60606003805480602002602001604051908101604052809291908181526020018280548015611db757602002820191906000526020600020905b8160009054906101000a900473ffffffffffffffffffffffffffffffffffffffff1673ffffffffffffffffffffffffffffffffffffffff1681526020019060010190808311611d6d575b5050505050905090565b611dc9611e47565b600073ffffffffffffffffffffffffffffffffffffffff168173ffffffffffffffffffffffffffffffffffffffff1603611e3b5760006040517f1e4fbdf7000000000000000000000000000000000000000000000000000000008152600401611e329190612530565b60405180910390fd5b611e4481611ece565b50565b611e4f611f92565b73ffffffffffffffffffffffffffffffffffffffff16611e6d610f8d565b73ffffffffffffffffffffffffffffffffffffffff1614611ecc57611e90611f92565b6040517f118cdaa7000000000000000000000000000000000000000000000000000000008152600401611ec39190612530565b60405180910390fd5b565b60008060009054906101000a900473ffffffffffffffffffffffffffffffffffffffff169050816000806101000a81548173ffffffffffffffffffffffffffffffffffffffff021916908373ffffffffffffffffffffffffffffffffffffffff1602179055508173ffffffffffffffffffffffffffffffffffffffff168173ffffffffffffffffffffffffffffffffffffffff167f8be0079c531659141344cd1fd0a4f28419497f9722a3daafe3b4186f6b6457e060405160405180910390a35050565b600033905090565b828054828255906000526020600020908101928215612013579160200282015b828111156120125782518260006101000a81548173ffffffffffffffffffffffffffffffffffffffff021916908373ffffffffffffffffffffffffffffffffffffffff16021790555091602001919060010190611fba565b5b5090506120209190612024565b5090565b5b8082111561203d576000816000905550600101612025565b5090565b6000604051905090565b600080fd5b600080fd5b600073ffffffffffffffffffffffffffffffffffffffff82169050919050565b600061208082612055565b9050919050565b61209081612075565b811461209b57600080fd5b50565b6000813590506120ad81612087565b92915050565b6000602082840312156120c9576120c861204b565b5b60006120d78482850161209e565b91505092915050565b7f4e487b7100000000000000000000000000000000000000000000000000000000600052602160045260246000fd5b600481106121205761211f6120e0565b5b50565b60008190506121318261210f565b919050565b600061214182612123565b9050919050565b61215181612136565b82525050565b600060208201905061216c6000830184612148565b92915050565b600081519050919050565b600082825260208201905092915050565b6000819050602082019050919050565b6121a781612075565b82525050565b60006121b9838361219e565b60208301905092915050565b6000602082019050919050565b60006121dd82612172565b6121e7818561217d565b93506121f28361218e565b8060005b8381101561222357815161220a88826121ad565b9750612215836121c5565b9250506001810190506121f6565b5085935050505092915050565b6000602082019050818103600083015261224a81846121d2565b905092915050565b60008115159050919050565b61226781612252565b82525050565b6000602082019050612282600083018461225e565b92915050565b600080fd5b600080fd5b6000601f19601f8301169050919050565b7f4e487b7100000000000000000000000000000000000000000000000000000000600052604160045260246000fd5b6122db82612292565b810181811067ffffffffffffffff821117156122fa576122f96122a3565b5b80604052505050565b600061230d612041565b905061231982826122d2565b919050565b600067ffffffffffffffff821115612339576123386122a3565b5b61234282612292565b9050602081019050919050565b82818337600083830152505050565b600061237161236c8461231e565b612303565b90508281526020810184848401111561238d5761238c61228d565b5b61239884828561234f565b509392505050565b600082601f8301126123b5576123b4612288565b5b81356123c584826020860161235e565b91505092915050565b6000806000606084860312156123e7576123e661204b565b5b600084013567ffffffffffffffff81111561240557612404612050565b5b612411868287016123a0565b935050602084013567ffffffffffffffff81111561243257612431612050565b5b61243e868287016123a0565b925050604084013567ffffffffffffffff81111561245f5761245e612050565b5b61246b868287016123a0565b9150509250925092565b6000806040838503121561248c5761248b61204b565b5b600061249a8582860161209e565b92505060206124ab8582860161209e565b9150509250929050565b6124be81612252565b81146124c957600080fd5b50565b6000813590506124db816124b5565b92915050565b600080604083850312156124f8576124f761204b565b5b60006125068582860161209e565b9250506020612517858286016124cc565b9150509250929050565b61252a81612075565b82525050565b60006020820190506125456000830184612521565b92915050565b600081519050919050565b600082825260208201905092915050565b60005b8381101561258557808201518184015260208101905061256a565b60008484015250505050565b600061259c8261254b565b6125a68185612556565b93506125b6818560208601612567565b6125bf81612292565b840191505092915050565b6000819050919050565b6125dd816125ca565b82525050565b60006101008201905081810360008301526125fe818b612591565b90508181036020830152612612818a612591565b905081810360408301526126268189612591565b90506126356060830188612148565b61264260808301876125d4565b61264f60a08301866125d4565b61265c60c08301856125d4565b61266960e08301846125d4565b9998505050505050505050565b7f5573657220646f6573206e6f7420657869737400000000000000000000000000600082015250565b60006126ac601383612556565b91506126b782612676565b602082019050919050565b600060208201905081810360008301526126db8161269f565b9050919050565b7f4b594320616c7265616479207375626d69747465640000000000000000000000600082015250565b6000612718601583612556565b9150612723826126e2565b602082019050919050565b600060208201905081810360008301526127478161270b565b9050919050565b600081905092915050565b60006127648261254b565b61276e818561274e565b935061277e818560208601612567565b80840191505092915050565b60006127968284612759565b915081905092915050565b7f557365726e616d6520616c72656164792074616b656e00000000000000000000600082015250565b60006127d7601683612556565b91506127e2826127a1565b602082019050919050565b60006020820190508181036000830152612806816127ca565b9050919050565b7f557365726e616d652063616e6e6f7420626520656d7074790000000000000000600082015250565b6000612843601883612556565b915061284e8261280d565b602082019050919050565b6000602082019050818103600083015261287281612836565b9050919050565b7f4e487b7100000000000000000000000000000000000000000000000000000000600052602260045260246000fd5b600060028204905060018216806128c057607f821691505b6020821081036128d3576128d2612879565b5b50919050565b600081905092915050565b60008190508160005260206000209050919050565b60008154612906816128a8565b61291081866128d9565b9450600182166000811461292b576001811461294057612973565b60ff1983168652811515820286019350612973565b612949856128e4565b60005b8381101561296b5781548189015260018201915060208101905061294c565b838801955050505b50505092915050565b600061298882846128f9565b915081905092915050565b60008190508160005260206000209050919050565b600081546129b5816128a8565b6129bf818661274e565b945060018216600081146129da57600181146129ef57612a22565b60ff1983168652811515820286019350612a22565b6129f885612993565b60005b83811015612a1a578154818901526001820191506020810190506129fb565b838801955050505b50505092915050565b6000612a3782846129a8565b915081905092915050565b60006020601f8301049050919050565b600082821b905092915050565b600060088302612a8f7fffffffffffffffffffffffffffffffffffffffffffffffffffffffffffffffff82612a52565b612a998683612a52565b95508019841693508086168417925050509392505050565b6000819050919050565b6000612ad6612ad1612acc846125ca565b612ab1565b6125ca565b9050919050565b6000819050919050565b612af083612abb565b612b04612afc82612add565b848454612a5f565b825550505050565b600090565b612b19612b0c565b612b24818484612ae7565b505050565b5b81811015612b4857612b3d600082612b11565b600181019050612b2a565b5050565b601f821115612b8d57612b5e81612993565b612b6784612a42565b81016020851015612b76578190505b612b8a612b8285612a42565b830182612b29565b50505b505050565b600082821c905092915050565b6000612bb060001984600802612b92565b1980831691505092915050565b6000612bc98383612b9f565b9150826002028217905092915050565b612be28261254b565b67ffffffffffffffff811115612bfb57612bfa6122a3565b5b612c0582546128a8565b612c10828285612b4c565b600060209050601f831160018114612c435760008415612c31578287015190505b612c3b8582612bbd565b865550612ca3565b601f198416612c5186612993565b60005b82811015612c7957848901518255600182019150602085019450602081019050612c54565b86831015612c965784890151612c92601f891682612b9f565b8355505b6001600288020188555050505b505050505050565b7f4e487b7100000000000000000000000000000000000000000000000000000000600052603260045260246000fd5b7f4b5943206e6f742070656e64696e670000000000000000000000000000000000600082015250565b6000612d10600f83612556565b9150612d1b82612cda565b602082019050919050565b60006020820190508181036000830152612d3f81612d03565b9050919050565b7f4e487b7100000000000000000000000000000000000000000000000000000000600052601160045260246000fd5b6000612d80826125ca565b9150612d8b836125ca565b9250828201905080821115612da357612da2612d46565b5b92915050565b6000602082019050612dbe60008301846125d4565b92915050565b7f55736572206e6f74207472757374656400000000000000000000000000000000600082015250565b6000612dfa601083612556565b9150612e0582612dc4565b602082019050919050565b60006020820190508181036000830152612e2981612ded565b9050919050565b6000612e3b826125ca565b9150612e46836125ca565b9250828203905081811115612e5e57612e5d612d46565b5b92915050565b7f4e487b7100000000000000000000000000000000000000000000000000000000600052603160045260246000fd5b7f54727573746564207573657220646f6573206e6f742065786973740000000000600082015250565b6000612ec9601b83612556565b9150612ed482612e93565b602082019050919050565b60006020820190508181036000830152612ef881612ebc565b9050919050565b7f43616e6e6f7420747275737420796f757273656c660000000000000000000000600082015250565b6000612f35601583612556565b9150612f4082612eff565b602082019050919050565b60006020820190508181036000830152612f6481612f28565b9050919050565b7f5573657220616c72656164792074727573746564000000000000000000000000600082015250565b6000612fa1601483612556565b9150612fac82612f6b565b602082019050919050565b60006020820190508181036000830152612fd081612f94565b9050919050565b7f5573657220616c72656164792072656769737465726564000000000000000000600082015250565b600061300d601783612556565b915061301882612fd7565b602082019050919050565b6000602082019050818103600083015261303c81613000565b9050919050565b6000602082019050818103600083015261305d8184612591565b90509291505056fea26469706673582212205e464c04c20a0f090ecd36428867d42dc7442730faa3abc9c2fd2ed70442850864736f6c63430008180033",
  "linkReferences": {},
  "deployedLinkReferences": {}
}